:020000040000fa
:080000000002040000000000f2
:020000040000fa
:040008003c030000b5
:020000040000fa
:04000c001c030000d1
:020000040000fa
:0400100020030000c9
:020000040000fa
:0400140024030000c1
:020000040000fa
:0400180028030000b9
:020000040000fa
:04001c003c030000a1
:020000040000fa
:040020003c0300009d
:020000040000fa
:040024003c03000099
:020000040000fa
:040028003c03000095
:020000040000fa
:04002c003c03000091
:020000040000fa
:040030003c0300008d
:020000040000fa
:04003400f4020000d2
:020000040000fa
:040038003c03000085
:020000040000fa
:04003c003c03000081
:020000040000fa
:040040003c0300007d
:020000040000fa
:040044003c03000079
:020000040000fa
:040048003c03000075
:020000040000fa
:04004c003c03000071
:020000040000fa
:040050003c0300006d
:020000040000fa
:040054003c03000069
:020000040000fa
:040058003c03000065
:020000040000fa
:04005c003c03000061
:020000040000fa
:040060003c0300005d
:020000040000fa
:040064003c03000059
:020000040000fa
:040068003c03000055
:020000040000fa
:04006c003c03000051
:020000040000fa
:040070003c0300004d
:020000040000fa
:040074003c03000049
:020000040000fa
:040078003c03000045
:020000040000fa
:04007c003c03000041
:020000040000fa
:040080003c0300003d
:020000040000fa
:040084003c03000039
:020000040000fa
:040088003c03000035
:020000040000fa
:04008c003c03000031
:020000040000fa
:040090003c0300002d
:020000040000fa
:040094003c03000029
:020000040000fa
:040098003c03000025
:020000040000fa
:04009c003c03000021
:020000040000fa
:0400a0003c0300001d
:020000040000fa
:0400a4003c03000019
:020000040000fa
:0400a8003c03000015
:020000040000fa
:0400ac003c03000011
:020000040000fa
:0400b0003c0300000d
:020000040000fa
:0400b4003c03000009
:020000040000fa
:0400b8003c03000005
:020000040000fa
:0400bc003c03000001
:020000040000fa
:0400c0003c030000fd
:020000040000fa
:0400c4003c030000f9
:020000040000fa
:0400c8003c030000f5
:020000040000fa
:0400cc003c030000f1
:020000040000fa
:0400d0003c030000ed
:020000040000fa
:0400d4003c030000e9
:020000040000fa
:0400d8003c030000e5
:020000040000fa
:0400dc003c030000e1
:020000040000fa
:0400e0003c030000dd
:020000040000fa
:0400e4003c030000d9
:020000040000fa
:0400e8003c030000d5
:020000040000fa
:0400ec003c030000d1
:020000040000fa
:0400f0003c030000cd
:020000040000fa
:0400f4003c030000c9
:020000040000fa
:0400f8003c030000c5
:020000040000fa
:0400fc003c030000c1
:020000040000fa
:040100003c030000bc
:020000040000fa
:040104003c030000b8
:020000040000fa
:040108003c030000b4
:020000040000fa
:04010c003c030000b0
:020000040000fa
:040110003c030000ac
:020000040000fa
:040114003c030000a8
:020000040000fa
:040118003c030000a4
:020000040000fa
:04011c003c030000a0
:020000040000fa
:040120003c0300009c
:020000040000fa
:040124003c03000098
:020000040000fa
:040128003c03000094
:020000040000fa
:04012c003c03000090
:020000040000fa
:040130003c0300008c
:020000040000fa
:040134003c03000088
:020000040000fa
:040138003c03000084
:020000040000fa
:04013c003c03000080
:020000040000fa
:040140003c0300007c
:020000040000fa
:040144003c03000078
:020000040000fa
:040148003c03000074
:020000040000fa
:04014c003c03000070
:020000040000fa
:040150003c0300006c
:020000040000fa
:040154003c03000068
:020000040000fa
:040158003c03000064
:020000040000fa
:04015c003c03000060
:020000040000fa
:040160003c0300005c
:020000040000fa
:040164003c03000058
:020000040000fa
:040168003c03000054
:020000040000fa
:04016c003c03000050
:020000040000fa
:040170003c0300004c
:020000040000fa
:040174003c03000048
:020000040000fa
:040178003c03000044
:020000040000fa
:04017c003c03000040
:020000040000fa
:04018000d4020000a5
:020000040000fa
:040208003c030000b3
:020000040000fa
:04020c002c030000bf
:020000040000fa
:0402100030030000b7
:020000040000fa
:0402140034030000af
:020000040000fa
:0402180038030000a7
:020000040000fa
:04021c003c0300009f
:020000040000fa
:040220003c0300009b
:020000040000fa
:040224003c03000097
:020000040000fa
:040228003c03000093
:020000040000fa
:04022c003c0300008f
:020000040000fa
:040230003c0300008b
:020000040000fa
:04023400f4020000d0
:020000040000fa
:040238003c03000083
:020000040000fa
:04023c003c0300007f
:020000040000fa
:040240003c0300007b
:020000040000fa
:040244003c03000077
:020000040000fa
:040248003c03000073
:020000040000fa
:04024c003c0300006f
:020000040000fa
:040250003c0300006b
:020000040000fa
:040254003c03000067
:020000040000fa
:040258003c03000063
:020000040000fa
:04025c003c0300005f
:020000040000fa
:040260003c0300005b
:020000040000fa
:040264003c03000057
:020000040000fa
:040268003c03000053
:020000040000fa
:04026c003c0300004f
:020000040000fa
:040270003c0300004b
:020000040000fa
:040274003c03000047
:020000040000fa
:040278003c03000043
:020000040000fa
:04027c003c0300003f
:020000040000fa
:040280003c0300003b
:020000040000fa
:040284003c03000037
:020000040000fa
:040288003c03000033
:020000040000fa
:04028c003c0300002f
:020000040000fa
:040290003c0300002b
:020000040000fa
:040294003c03000027
:020000040000fa
:040298003c03000023
:020000040000fa
:04029c003c0300001f
:020000040000fa
:0402a0003c0300001b
:020000040000fa
:0402a4003c03000017
:020000040000fa
:0402a8003c03000013
:020000040000fa
:0402ac003c0300000f
:020000040000fa
:0402b0003c0300000b
:020000040000fa
:0402b4003c03000007
:020000040000fa
:0402b8003c03000003
:020000040000fa
:0402bc003c030000ff
:020000040000fa
:0402c0003c030000fb
:020000040000fa
:0402c4003c030000f7
:020000040000fa
:0402c8003c030000f3
:020000040000fa
:0402cc003c030000ef
:020000040000fa
:0402d0003c030000eb
:020000040000fa
:0402d4003c030000e7
:020000040000fa
:0402d8003c030000e3
:020000040000fa
:0402dc003c030000df
:020000040000fa
:0402e0003c030000db
:020000040000fa
:0402e4003c030000d7
:020000040000fa
:0402e8003c030000d3
:020000040000fa
:0402ec003c030000cf
:020000040000fa
:0402f0003c030000cb
:020000040000fa
:0402f4003c030000c7
:020000040000fa
:0402f8003c030000c3
:020000040000fa
:0402fc003c030000bf
:020000040000fa
:040300003c030000ba
:020000040000fa
:040304003c030000b6
:020000040000fa
:040308003c030000b2
:020000040000fa
:04030c003c030000ae
:020000040000fa
:040310003c030000aa
:020000040000fa
:040314003c030000a6
:020000040000fa
:040318003c030000a2
:020000040000fa
:04031c003c0300009e
:020000040000fa
:040320003c0300009a
:020000040000fa
:040324003c03000096
:020000040000fa
:040328003c03000092
:020000040000fa
:04032c003c0300008e
:020000040000fa
:040330003c0300008a
:020000040000fa
:040334003c03000086
:020000040000fa
:040338003c03000082
:020000040000fa
:04033c003c0300007e
:020000040000fa
:040340003c0300007a
:020000040000fa
:040344003c03000076
:020000040000fa
:040348003c03000072
:020000040000fa
:04034c003c0300006e
:020000040000fa
:040350003c0300006a
:020000040000fa
:040354003c03000066
:020000040000fa
:040358003c03000062
:020000040000fa
:04035c003c0300005e
:020000040000fa
:040360003c0300005a
:020000040000fa
:040364003c03000056
:020000040000fa
:040368003c03000052
:020000040000fa
:04036c003c0300004e
:020000040000fa
:040370003c0300004a
:020000040000fa
:040374003c03000046
:020000040000fa
:040378003c03000042
:020000040000fa
:04037c003c0300003e
:020000040000fa
:04038000d4020000a3
:020000040000fa
:100400006fff21000e7f22000e0188000000000017
:10041000000020000000e000020032000001200087
:100420002002880014000700b60007000000e0006a
:1004300003003a000083270001002000020037007b
:100440000000200001002000810f70000100320038
:1004500014000700000020000000e000020032004d
:100460000000020000000000e67902000000000029
:100470000040da000000fe004440a9002073200084
:100480000000e0000300320000002000a00188000e
:100490004440a800000006008a1f78008b1f7800e7
:1004a0000000060091018800800478000000eb0045
:1004b0001a003700e284440032a0b4009905ba0063
:1004c000e284440032a0b4009906ba00e2844400f9
:1004d00032a0b4000006eb00476fde00fd07b2005b
:1004e000636ce10003003a00ebff07000000eb0043
:1004f0000a003700606ce10004003a00005deb0088
:100500008b05e900fdff3e00040037006168e10053
:10051000010032000086eb000b00070019c7ba008b
:100520001905ba000e04e00003003a000a00e000da
:10053000e0ff3a0000000600fe07b2009e018800be
:100540008a047800f5ff3700395dba008b05e900b1
:100550000c003200295dba008b05e900080032006a
:100560000c00e00003003a00e284440032a0b40032
:10057000f5ff370019ddba008b05e900faff3a00f4
:100580008904e800e184440032a0b40000000600c1
:10059000000000000000000000000000000000005b
:1005a00000000000000000003600f800809fbe0040
:1005b000829fbe00849fbe00869fbe003400f8006c
:1005c00000002000a0018800121307003400f90089
:1005d0004f03be004f02be004f01be004f00be00e1
:1005e0003600f900004006003600f800809fbe008b
:1005f000829fbe00849fbe00869fbe003400f8002c
:1006000000002000a0018800ef260700492907000c
:10061000452a07004428ec008460a9003400f90052
:100620004f03be004f02be004f01be004f00be0090
:100630003600f900004006008020a900ffff3700c7
:100640008060a900ffff37008040a900ffff37004e
:100650008080a900ffff37008020a900ffff37003e
:100660008060a900ffff37008040a900ffff37002e
:100670008080a900ffff3700ffff3700889fbe0082
:100680008004780020c180000000e00005003a00ee
:100690000000eb000e0007000084eb000000e0000b
:1006a0000800350028c180000900e0000500320084
:1006b00009004400060007000000e00001003d00c2
:1006c0000084eb00080078004f04be000000060024
:1006d000800078000100e00003003a006082210001
:1006e00020c18800000005000080eb0062ff2100af
:1006f000828f500002003e0021c188000000eb0004
:1007000000000600000005006022b800060220007c
:100710000000d0008180d2000482d2008582d20005
:100720000000a0000202520083825a000300310040
:100730000202420083824a000000a1000603e90091
:10074000f3ff3a0000000600f5bf80000001eb0057
:100750000500e00031003200050178008001eb0067
:1007600003027800830078000200370082017800dd
:100770000601780012037800800f530009003a0048
:100780000300e00003003200120090009001980086
:100790000200370012009000f0bf88000281e800dc
:1007a0001e003700800f5300060036000100e000f5
:1007b00002003200910f130002003600030278009d
:1007c00082007800120390000600e000e7ff3a0084
:1007d0000001eb000100e000100032001101900068
:1007e00011031000e40f5300060036008101780069
:1007f00080197800008041000688e9001200980006
:1008000000017800818f520002003a00f2bf880098
:1008100001003700120298000181e8000200780010
:10082000000006000000e000180032000081e9002e
:10083000f1bf80000100e000120032009201780058
:1008400003024000848f500006003a00110290001d
:1008500004087800918141000389e800f2bf880014
:1008600000000600110278008482e80085824000c2
:10087000850f510003003a00848141008388e8001d
:100880000000060001087800f2bf880000000600a2
:100890000200fa00889fbe000000e00001003a005c
:1008a000100020000004e8000800a10000c1800042
:1008b0000000e8000000a10000c1880020412000e5
:1008c0000000e0000f003200e10f54000600360087
:1008d000e20f440005003a00c000200010c188006b
:1008e0000000eb002a0037002800200008007800f4
:1008f00095ff0700290020000000e00024003a00d6
:10090000010037008004eb0000c18000f1c08000ce
:1009100000805000800f540013003600088044000f
:10092000d0bf9f00668057004b0007008000780012
:100930000000eb000100e000150032000100e800bb
:100940000000a100f1c08000810f500001003200c2
:1009500000c18800dfb89700010040000000e800f7
:100960000000a100f0c0880001c180000900e00083
:1009700003003200010078000818780001003700f9
:1009800001007800088444008880400001c188008c
:100990004f04be000080fa000000060080017800cd
:1009a00002003700b15978000201e9000200e000be
:1009b000fcff3a0000000600881f78000004780061
:1009c000080078003b000700080078004f0478001a
:1009d0000000060080007800040037003104e000c9
:1009e00002003a00000051000000060001017800fa
:1009f0000108a300f9ff3a00810178003101780075
:100a0000f4ef2f00020242000281ea0002016200bc
:100a10000408280004016100f7ff32008300780019
:100a2000010178003104e000fdff3a0000005100b0
:100a300000000600889fbe000004be000800780089
:100a4000e4ff07000001e8000800be000c000700fa
:100a50004f04be0000000600900078000000eb008c
:100a60000100e000050035000100780003ff0700e9
:100a7000e10f400001003a000000eb00000006001a
:100a80008180fb00060037000201e900820140007e
:100a9000604279000482fb00810f520003003200a3
:100aa0000200e000f8ff3a000000050003007800b3
:100ab00000000600010178008001780000826800d3
:100ac0000408a3000500320013003700324078000c
:100ad000805978000004e00014003200030278001e
:100ae0000208a300f9ff3a00030078000100370074
:100af0000318780082007800b2017800f5ef2f002b
:100b0000838242000382ea00048262000508280012
:100b100005026200f6ff32000002780031417800e1
:100b2000025878000204e000fbff3a00040078005d
:040b300000000600bb
:020000040000fa
:100b340041000000420000004300000044000000a7
:100b44004500000046000000470000004800000087
:100b5400490000004a0000004b0000004c00000067
:100b64004d0000004e0000004f0000005000000047
:100b74005100000052000000530000005400000027
:100b84005500000056000000570000005800000007
:100b9400590000005a00000021000000e0ff00009e
:100ba400e1ff0000e5ff0000e2ff0000e3ff0000ba
:100bb400c0000000c1000000c2000000c30000002b
:100bc400c4000000c5000000c6000000c70000000b
:100bd400c8000000c9000000ca000000cb000000eb
:100be400cc000000cd000000ce000000cf000000cb
:100bf400d0000000d1000000d2000000d3000000ab
:100c0400d4000000d5000000d6000000d800000089
:100c1400d9000000da000000db000000dc00000066
:100c2400dd000000de00000078010000000100008b
:100c34000201000004010000060100000801000098
:100c44000a0100000c0100000e0100001001000068
:100c54001201000014010000160100001801000038
:100c64001a0100001c0100001e0100002001000008
:100c740022010000240100002601000028010000d8
:100c84002a0100002c0100002e01000030010000a8
:100c94003201000034010000360100003901000077
:100ca4003b0100003d0100003f0100004101000044
:100cb4004301000045010000470100004a01000013
:100cc4004c0100004e0100005001000052010000e0
:100cd4005401000056010000580100005a010000b0
:100ce4005c0100005e010000600100006201000080
:100cf4006401000066010000680100006a01000050
:100d04006c0100006e01000070010000720100001f
:100d14007401000076010000790100007b010000ed
:100d24007d01000091010000910300009203000086
:100d34009303000094030000950300009603000051
:100d44009703000098030000990300009a03000031
:100d54009b0300009c0300009d0300009e03000011
:100d64009f030000a0030000a1030000a3030000f0
:100d7400a4030000a5030000a6030000a7030000cd
:100d8400a8030000a9030000aa0300001004000047
:100d940011040000120400001304000014040000f5
:100da40015040000160400001704000018040000d5
:100db400190400001a0400001b0400001c040000b5
:100dc4001d0400001e0400001f0400002004000095
:100dd4002104000022040000230400002404000075
:100de4002504000026040000270400002804000055
:100df400290400002a0400002b0400002c04000035
:100e04002d0400002e0400002f0400000104000043
:100e140002040000030400000404000005040000b0
:100e24000604000007040000080400000904000090
:100e34000a0400000b0400000c0400000e0400006f
:100e44000f04000060210000612100006221000005
:100e54006321000064210000652100006621000078
:100e64006721000068210000692100006a21000058
:100e74006b2100006c2100006d2100006e21000038
:100e84006f21000021ff000022ff000023ff00006b
:100e940024ff000025ff000026ff000027ff0000bc
:100ea40028ff000029ff00002aff00002bff00009c
:100eb4002cff00002dff00002eff00002fff00007c
:100ec40030ff000031ff000032ff000033ff00005c
:100ed40034ff000035ff000036ff000037ff00003c
:100ee40038ff000039ff00003aff00000000000056
:100ef4006100000062000000630000006400000064
:100f04006500000066000000670000006800000043
:100f1400690000006a0000006b0000006c00000023
:100f24006d0000006e0000006f0000007000000003
:100f340071000000720000007300000074000000e3
:100f440075000000760000007700000078000000c3
:100f5400790000007a000000a1000000a200000057
:100f6400a3000000a5000000ac000000af000000da
:100f7400e0000000e1000000e2000000e3000000e7
:100f8400e4000000e5000000e6000000e7000000c7
:100f9400e8000000e9000000ea000000eb000000a7
:100fa400ec000000ed000000ee000000ef00000087
:100fb400f0000000f1000000f2000000f300000067
:100fc400f4000000f5000000f6000000f800000046
:100fd400f9000000fa000000fb000000fc00000023
:100fe400fd000000fe000000ff0000000101000001
:100ff40003010000050100000701000009010000d1
:101004000b0100000d0100000f01000011010000a0
:101014001301000015010000170100001901000070
:101024001b0100001d0100001f0100002101000040
:101034002301000025010000270100002901000010
:101044002b0100002d0100002f01000031010000e0
:101054003301000035010000370100003a010000af
:101064003c0100003e01000040010000420100007c
:101074004401000046010000480100004b0100004b
:101084004d0100004f010000510100005301000018
:101094005501000057010000590100005b010000e8
:1010a4005d0100005f0100006101000063010000b8
:1010b4006501000067010000690100006b01000088
:1010c4006d0100006f010000710100007301000058
:1010d40075010000770100007a0100007c01000026
:1010e4007e01000092010000b1030000b203000081
:1010f400b3030000b4030000b5030000b60300000e
:10110400b7030000b8030000b9030000ba030000ed
:10111400bb030000bc030000bd030000be030000cd
:10112400bf030000c0030000c1030000c3030000ac
:10113400c4030000c5030000c6030000c703000089
:10114400c8030000c9030000ca0300003004000003
:1011540031040000320400003304000034040000b1
:101164003504000036040000370400003804000091
:10117400390400003a0400003b0400003c04000071
:101184003d0400003e0400003f0400004004000051
:101194004104000042040000430400004404000031
:1011a4004504000046040000470400004804000011
:1011b400490400004a0400004b0400004c040000f1
:1011c4004d0400004e0400004f04000051040000d0
:1011d40052040000530400005404000055040000ad
:1011e400560400005704000058040000590400008d
:1011f4005a0400005b0400005c0400005e0400006c
:101204005f040000702100007121000072210000c1
:101214007321000074210000752100007621000074
:101224007721000078210000792100007a21000054
:101234007b2100007c2100007d2100007e21000034
:101244007f21000041ff000042ff000043ff000037
:1012540044ff000045ff000046ff000047ff000078
:1012640048ff000049ff00004aff00004bff000058
:101274004cff00004dff00004eff00004fff000038
:1012840050ff000051ff000052ff000053ff000018
:1012940054ff000055ff000056ff000057ff0000f8
:1012a40058ff000059ff00005aff00000000000032
:1012b40010040000110400001204000013040000d4
:1012c40014040000150400001604000017040000b4
:1012d40018040000190400001a0400001b04000094
:1012e4001c0400001d0400001e0400001f04000074
:1012f4002004000021040000220400002304000054
:101304002404000025040000260400002704000033
:1013140028040000290400002a0400002b04000013
:101324002c0400002d0400002e0400002f040000f3
:1013340030040000310400003204000033040000d3
:1013440034040000350400003604000037040000b3
:1013540038040000390400003a0400003b04000093
:101364003c0400003d0400003e0400003f04000073
:10137400912500009225000093250000022500001d
:101384002425000061250000622500005625000088
:101394005525000063250000512500005725000055
:1013a4005d2500005c2500005b2500001025000081
:1013b40014250000342500002c2500001c25000005
:1013c400002500003c2500005e2500005f2500008c
:1013d4005a250000542500006925000066250000f8
:1013e40060250000502500006c25000067250000e2
:1013f40068250000642500006525000059250000cb
:101404005825000052250000532500006b250000dc
:101414006a250000182500000c250000882500001e
:10142400842500008c250000902500008025000004
:101434004004000041040000420400004304000092
:101444004404000045040000460400004704000072
:1014540048040000490400004a0400004b04000052
:101464004c0400004d0400004e0400004f04000032
:1014740001040000510400000404000054040000ae
:1014840007040000570400000e0400005e0400007e
:10149400b000000019220000b70000001a2200006a
:1014a40016210000a4000000a0250000a0000000f8
:1014b400006300006f6e000066690000672e000084
:1014c400696e0000690000002e2e0000006d00000f
:1014d400616900006e2e000074610000700000005d
:1014e4007361000076650000643000003030000055
:1014f4002e74000061700000001500000810000048
:101504002c190000081500002c1e000037270000cd
:1015140027000000120e0000005100002803000004
:101524000303000003030000030300000f12000084
:10153400040700002cf9000003f900002800000053
:101544001200000016000000001500002001000039
:10155400381600000c000000534400002063000013
:1015640061720000641600000001000015200000f4
:1015740011170000142000001113000020110000b6
:1015840016000000121500002006000017150000c8
:10159400200100003814000020050000160000009f
:1015a4001313000020050000160e0000124900006d
:1015b4006e6600006f160000011400004c6f0000fe
:1015c400616400003a160000011500005361000038
:1015d400766500003a15000020010000381500006f
:1015e4002001000017e10000e5e00000e4e2000053
:1015f400e64c00002f300000f5f60000f7e800008c
:10160400311e0000e91f0000ea200000eb21000069
:10161400ec220000ed230000ee240000ef25000082
:10162400f0260000f1270000f22d0000f32e000048
:10163400f4310000f5330000f8340000f9360000fe
:10164400fa370000fb380000fc0e0000e82f000011
:10165400f6300000f7ff0000ffff0000ff0100006c
:10166400271800001112000019210000261500009f
:101674001e1600000e1700001f0d000005020000da
:101684001a090000221d0000200a00001025000095
:10169400080300000b1300001b230000241c00009f
:1016a400140c00000406000043440000ff0700007f
:1016b4009e8e0000e5dd0000d19c00008d9c0000a2
:1016c4009c9f000097a000004bff0000ffff00005c
:1016d400ffff0000ffff0000ffff0000ffff00000e
:1016e400ffff0000ffff0000ffff0000ffd6000027
:1016f400ffff000054630000645c0000ffa00000d2
:10170400a79e000096060000030b0000131b0000b8
:10171400232400001c1400000c04000097a0000007
:10172400ffff0000ffff0000ffff0000ffff0000bd
:10173400ffff0000ffff0000ffff0000ffff0000ad
:10174400ffff0000ffff0000ffff0000ffff00009d
:10175400ffff0000ffff0000ffff0000ffff00008d
:10176400ffff0000ffff0000ffff0000ffff00007d
:10177400ffff0000ffff0000ffff0000ffff00006d
:10178400ffff0000ffff0000ffff0000ffff00005d
:10179400ffff0000ffff0000ffff0000ffff00004d
:1017a400ffff0000ffff0000ffff0000ffff00003d
:1017b400ffff0000ffff0000ffff0000ffff00002d
:1017c400ffff0000ffff0000ffff0000ffff00001d
:1017d400ffff0000ffff0000ffff0000ffff00000d
:1017e400ffff0000ffff0000ffff0000ffff0000fd
:1017f400ffff0000ffff0000ffff0000ffff0000ed
:10180400ffff0000ffff0000ffff0000ffff0000dc
:10181400ffff0000ffff0000ffff0000ffff0000cc
:10182400ffff0000ffc10000838b0000939b0000ba
:10183400a3a60000a4a70000948c000084960000d6
:10184400c9d90000e1880000859a0000a298000030
:10185400c0ff0000ff000000222a00003a3c000004
:101864003e3f00007c7f0000002b00002c3b00006a
:101874003d5b00005d00000001030000050700005f
:10188400090e00001012000014160000181c0000bd
:101894001e80000081820000838400008586000091
:1018a40087880000898a00008b8c00008d8e0000e0
:1018b4008f90000091920000939400009596000090
:1018c40097980000999a00009b9c00009d9e000040
:1018d4009f800000818200008384000085860000d0
:1018e40087880000898a00008b8c00008d8e0000a0
:1018f4008fb00000b1b20000b3b40000b5b6000070
:10190400b7b80000b9ba0000bbbc0000bdbe0000ff
:10191400bfc00000c1c20000c3c40000c5c60000af
:10192400c7c80000c9ca0000cbcc0000cdce00005f
:10193400cfd00000d1d20000d3d40000d5d600000f
:10194400d7d80000d9da0000dbdc0000ddde0000bf
:10195400df90000091920000939d00009596000096
:1019640097980000999a00009b9c00009d9e00009f
:101974009ff00000f0f20000f2f40000f4f6000022
:10198400f6f80000f9fa0000fbfc0000fdfe000080
:04199400ff00000050
:020000040000fa
:1019980060bd80004900dd004f00de000000060049
:1019a80001f02000a04180008080600010c3b300d7
:1019b8001e00320001f02000a041800080806000fd
:1019c80000402000808f500008003a00010f2000de
:1019d800a04180008080600000c3b300f08f5000f9
:1019e80012003a00a0c3b3001000370001f0200035
:1019f800a04180008080600000502000808f50004f
:101a080003003a00007a21001040780007003700f0
:101a1800a24180001210b10040c3b300e12f2000a2
:101a2800810f510001003e0020c3b30000000600f2
:101a38008040780060c0b300f279210092cf100096
:101a480007003a0001f02000a0418000808060007b
:101a580030c0b300020032003428ef000040eb0031
:101a6800000006008040780060c0b300f2792100d1
:101a780092cf100007003a0030c0b30001412000a7
:101a8800a2418000810f510002003a003428ec0086
:101a98000040eb00000006008040780060c0b30002
:101aa800f279210092cf100009003a0030c0b3004b
:101ab80001402000a2418000810f510004003a003b
:101ac8009404a90000412000a04188000040eb00d8
:101ad80000000600b0418000900090000160a10065
:101ae80011009800b0418000900090000150a100c2
:101af800110098003e48ed003ee8b70003003200b0
:101b080000ff2f003428b6000b0037003f48ed00d7
:101b18003fe8b7000300320000112000a041880010
:101b28000500370071c0b300007a21000148780031
:101b380000502000a041880000000600ec87470004
:101b4800889fbe008a9fbe008c9fbe008e1f7800b3
:101b580000467800814678000247780083bf9f00de
:101b68007b418000e97e21000004eb000905780034
:101b78004340dd00660040006a0078000018a300ba
:101b8800360032004340dd00660040006a007800fd
:101b98000058a30002003a00994f16002f003a009f
:101ba8004340dd00660040006a0078000048a3005a
:101bb80003003a00194090008d4f500027003a006a
:101bc8004340dd00660040006a0078000038a3004a
:101bd80003003a00294090008e4f50001f003a0041
:101be8000b4890000080fb009b489000c808dd006f
:101bf80080807000c1b79f00ab4890008180fb00d7
:101c08003b4890004800dd0000807000d0b79f007e
:101c1800ccef9f00ddef9f00eeef9f0084002000d7
:101c280005002000788157009107200000c0eb00d4
:101c3800663507000004e00008003a004344dd0070
:101c4800207f210000004400104090008fb89700ca
:101c58008048780010c0b300050037000804e80089
:101c6800e8844400e20f5400c1ff3a000040eb0052
:101c78004f0778004f06be004f05be004f04be0058
:101c8800cf00b10000000600ea874700889fbe0029
:101c98008a9fbe008c9fbe008e1f7800784180000e
:101ca800c07a21001060a1001070a100f97e210007
:101cb8000b7f21000005eb00ed7e21000006780077
:101cc8000e0420004350dd00660040006d007800df
:101cd8000018a3000c003200f9f897004840900063
:101ce80080cf50004c003a0058409000994f1000a7
:101cf80049003a00684090009b4f100046003a00a7
:101d08001c60a000440037000900780008499000d2
:101d18000281fb0098489000c808dd00810071002e
:101d28000901e900928f10001a003a002849900032
:101d38000281fb00b8489000c808dd0081007100ee
:101d48009b8f100013003a00c350dd00e68040006e
:101d5800ed8078000178a3000d0032001c70a0000f
:101d680049419000217a210082487800c350dd0063
:101d7800e6804000ed8078000128a30005003200cd
:101d880039419000c179210082487800010037006c
:101d98001c60a0008000e9000081eb00910f110099
:101da8001d003a009b0f11001b003a008848900064
:101db8008180fb00184990004811dd000101710085
:101dc800d2b79f00a84890008180fb003849900056
:101dd8004811dd0082807000e1b79f00f0f897009d
:101de800e1ef9f0010407800f0ef9f001b41780062
:101df80082f79f00840020000500200076815700ac
:101e08009107200000c0eb00f03407000004e00058
:101e180001003a001c60a0001c006700120032009c
:101e2800c350dd00e07e210081014000127a2100cc
:101e3800d341900003497800e6804000e0807800b4
:101e480010c0b3000128a3000d003200c350dd000c
:101e5800e4804000e27e2100c079210062c8780059
:101e680010c0b300060037000a05e800e884440003
:101e7800e8854500e20f550092ff3a000040eb006c
:101e88004f0778004f06be004f05be004f04be0046
:101e9800af00b10000000600804078000104e000b7
:101ea80002003a0050bd80001800370043bd800092
:101eb8000000eb000300e000140032002300900053
:101ec8000000e0000d003200200090000000e0005b
:101ed8000a00320020599000814f510004003a0056
:101ee8000a00370020599000814f51000700320046
:101ef800100078000000e000faff3a009301780033
:101f08000300e000edff3a000000eb0000000600cf
:101f1800889fbe000204be00f2792100924f100093
:101f28000600320060c0b300004c7800800ceb0063
:101f3800b914780010c0b3002200370001407800bf
:101f4800d5ff07000000e0001b0032009000900061
:101f5800c908de00e1c06000100190000288a300fb
:101f680005003200004ceb00000990009009900039
:101f7800828cbe000e003700100190000258a300aa
:101f88000300320010c1b300004c7800080037008d
:101f9800100190000268a30003003200405890002e
:101fa800004c78000200370090c1b300004c780064
:101fb800014078000300370040c1b300004c7800ae
:101fc80010c0b3004f04be0000000600f2792100e3
:101fd800924f10000a003a0001407800aeff070057
:101fe8000000e00006003200900090000170a000a0
:101ff80011009800900090000190a0001100980036
:1020080000000600889fbe000204be0062c0b30044
:10201800f3792100934f10000d003a000140780039
:102028009dff070042c1b3000000e0000800320035
:1020380061046400cd40dd001004900008d0a100c8
:102048000884700018009800091098000041eb00ff
:10205800024078004f04be000000060062c0b300d2
:10206800f3792100934f10000c003a0001407800ea
:1020780089ff070042c1b3000000e00007003200fa
:10208800900090000150a10011009800900090006d
:102098000160a100110098000041eb0002407800a7
:1020a8000000060051bd80000082fb00510990002d
:1020b8004811de0063016100840f510006003a00f8
:1020c800110190000298a30003003a00b141880072
:1020d80011c0b3003d0037003b68ef0043bd8000ee
:1020e8008040eb000300e00038003200230190003c
:1020f8008000eb000200e00001003200a200900026
:102108008002eb000100e00022003200510990003b
:102118004811de0063016100820f52001a003a0084
:102128000004e00003003200e34f500016003a00bc
:1021380006003700110190000298a30012003a002f
:10214800b141880011c0b300200037001101900090
:102158000298a30006003200310190000200e0005e
:1021680009003a0021019000b200980006003700eb
:10217800310190000200e00003003a00b1418800fc
:1021880011c0b30011003700910078000100e00091
:1021980009003a00930178000300e0000a003200c9
:1021a80023019000850078000200e000d5ff32008e
:1021b800a2009000d3ff37000300e000d1ff3a00ef
:1021c8008040eb00010037008040eb0001407800c0
:1021d80000000600889fbe008a9fbe008c1f780002
:1021e8004cbd80000c00e000280032008b7a2100f2
:1021f8008004eb001c0678001b007800900090001b
:102208000100e0001d0032001105780040bd80008b
:1022180090009000210090000000e0000d003200c6
:10222800100478007df9070040bd80001000900080
:102238002900980040bd80001000900028009800f8
:1022480040bd800090009000210090000000e00058
:10225800f3ff3a000100780070f9070040bd8000e4
:102268001900980040bd80001a0098001b007800f3
:10227800900090000100e000e3ff3a0067f90700d2
:102288008c0d78000c00e000daff3a0050bd8000a9
:10229800b04188004f0678004f05be004f04be00cd
:1022a80000000600889fbe008a1f780030bd8000ad
:1022b8000000e00003003a000e0037000800780034
:1022c800020037000005eb00697a21001004900035
:1022d8001000780051f9070030bd80000a08780026
:1022e800190078004df90700880c78000800e00014
:1022f800f2ff3a00704180000000e0000200320066
:1023080046f907002e28ef00e04180000000e000b9
:102318000200320041f907003c28ef00adff07003a
:102328004f0578004f04be000000060050bd800035
:102338000000e00009003a002002200052f90700de
:102348008000780051bd88000040eb000100e000eb
:10235800130032008008eb0001003700d1ff0700ae
:1023680050bd8000b04188003428ef0030a8ef004d
:102378000040eb00e179210080487800f1792100e4
:10238800804878004008a8004000200070bd880000
:1023980080bd8800207b21000008eb0010c0b3003e
:1023a80000000600900290000550a100150098005a
:1023b800900290000560a10015009800900290001e
:1023c8000570a10015009800900290000580a100fa
:1023d800150098001003900005fe2f008502630089
:1023e800150098009002900005c0a1001500980003
:1023f800330898006033b80006089800170898005a
:102408008002eb0054009800650098008001eb0002
:1024180073089800210898007200980001c2b30060
:1024280001589800900090000190a10011009800b8
:1024380000000600900290000550a10015009800c9
:10244800900290000560a10015009800900290008d
:102458000570a10015009800900290000580a10069
:10246800150098001003900005fe2f0085026300f8
:10247800150098009002900005c0a1001500980072
:10248800330898006033b8000608980017089800c9
:102498006123b80056009800670098008001eb009f
:1024a8007308980021089800720098000400e00062
:1024b80003003a0001c1b300015898000200370038
:1024c80001c3b30001589800900090000190a1004a
:1024d8001100980000000600900190000370a10010
:1024e80013009800900190000380a1001300980049
:1024f8001002900003fe2f00830162001300980071
:102508009001900003c0a1001300980031089800c2
:102518006022b80004089800150898008001eb00b4
:1025280052009800630098000001eb0072089800c0
:10253800d00990000230200082816100828f510012
:1025480003003a0001c4b300015898000a0037009c
:1025580002102000828f510005003a0002c6b30025
:10256800025898000041eb009240980002003700a2
:1025780001c8b30001589800900090000190a10094
:102588001100980000000600889fbe008a1f78008e
:10259800020578000404be0062c0b300f37921008c
:1025a800934f100026003a0003f02000a04180005d
:1025b8008081610012c0b30000402000808f51006c
:1025c8001f003a000140780033fe070080017800c0
:1025d80042c1b3000300e000190032005308900024
:1025e8000030b20082c1b3001500320023589000b9
:1025f80052c1b3000004e00011003d001300900038
:1026080012c1b3000058a3000d003a001300900057
:1026180022c1b3000068a30009003a00130090002b
:1026280002c1b3000098a300050032000801780039
:102638008a00780003007800a7ff07000041eb003c
:10264800024078004f0578004f04be0000000600e5
:10265800900190000370a100130098009001900071
:102668000380a100130098001002900003fe2f00c1
:1026780083016200130098009001900003c0a1003c
:1026880013009800310898006022b80004089800e8
:10269800150898008001eb0052009800630098002c
:1026a8000001eb0072089800d00990000230200069
:1026b80082816100828f510003003a0001c5b30096
:1026c800015898000a00370002102000828f51003c
:1026d80005003a0002c7b300025898000041eb0019
:1026e800924098000200370001c9b30001589800d1
:1026f800900090000190a1001100980000000600d1
:10270800889fbe008a1f7800020578000404be0076
:1027180062c0b300f3792100934f100026003a00fd
:1027280003f02000a04180008081610012c0b30046
:1027380000402000808f51001f003a0001407800bf
:10274800d5fd07008001780042c1b3000300e00016
:1027580019003200530890000030b20082c1b30063
:10276800150032002358900052c1b3000004e00065
:10277800110035001300900012c1b3000058a300e7
:102788000d003a001300900022c1b3000068a300b6
:1027980009003a001300900002c1b3000098a3009a
:1027a80005003200080178008a00780003007800ec
:1027b800a7ff07000041eb00024078004f057800b2
:1027c8004f04be00000006000400fa00889fbe0007
:1027d8008a9fbe008c9fbe008045780081047800e7
:1027e800020578008306780020072000808f5400b7
:1027f80003003200f0ff2700808f54000e003a00db
:102808001a489000e14f40002e003200a2c0b300e9
:102818000440bc000280e800417e2100e10178000c
:10282800616ab8000a017800890078000b407800d6
:10283800030001002300370048bd80000800e000c5
:10284800120032004c7e21006168b80080bf9f00f2
:1028580091bf9f0078409000a2c0b3000440bc0024
:102868000281e800ec0179000fba97009fba97003f
:102878000a017800890078000b4078000300010005
:10288800180478000800e000f2ff3a0060bd8000fc
:102898000078a3000b003200207a21001080fb0092
:1028a8006a00b9000080e800417e2100e10178005b
:1028b800616ab8000a017800890078000b40780046
:1028c800030001004f06be004f05be004f04be00c6
:1028d8000080fa00000006000200fa008824ef00d9
:1028e800f0792100104078000004e0000f00320069
:1028f8008040eb00e1ff9f0021bd8000f1ff9f00b9
:1029080024002000050020000f81e900a106200016
:102918002e320700f0792100130020000001780012
:102928001107200010407800a7ff07006000b800da
:102938007efe07000080fa000000060033c0b300e6
:10294800e1cf40000f003a000204e0000d003a0019
:1029580081062000810f500004003a00deff0700c6
:102968004008a9008041eb000600370033c0b300df
:10297800b1062000810f500002003a004008a8006c
:102988008041eb0003407800000006000400fa00d4
:10299800889fbe008a9fbe008c1f78000046780082
:1029a800810578000205780048bd80000800e00035
:1029b80014003200497e21006118b80090bf9f00c2
:1029c800a1bf9f0078409000a2c0b3000440bc00a3
:1029d80064014100e90179000300e00006003200cb
:1029e8001fba9700afba97000a0178008b007800e9
:1029f8000c40780003000100180478000800e0008b
:102a0800f0ff3a004f0678004f05be004f04be00a5
:102a18000080fa0000000600f0874700889fbe008b
:102a28008a9fbe008c9fbe008e1f780049bd800023
:102a3800c07a21001010a1001020a0006041800081
:102a4800b04578000000e800304478003045780050
:102a58000000e800b040780081ef9f00204090001f
:102a680090ef9f00e0e79f007c8157000069eb0032
:102a780024002000050020009106200000c0eb0083
:102a8800d23107000004e00005003a0081c2b3001b
:102a9800007a21000148780011c0b300de00370039
:102aa8000884fb004855dd00080645000b85fb003f
:102ab800604180008040eb008a0f5600d600360047
:102ac8000a0040008146780089bf9f008005780091
:102ad8000b007800b0457800b0407800e9cf50008e
:102ae8000e003a00c27a21001210a00010407800af
:102af800d3792100804978000018a300040032002f
:102b08001238a300020032001220a100050037008d
:102b1800c47a21001430a10002003700e4cf50002d
:102b2800060032008b85fb000b0545000a00780083
:102b38002c08b40080057800ae0037009044780077
:102b4800d0407800a1ef9f0000017800524778003c
:102b580052407800d2407800f2b79f008201780096
:102b680053417800f3b79f0005042000c47a210080
:102b78009481620004003200107a2100104078002d
:102b8800c0e79f000a003700fc815700ebfb0700f5
:102b98000004e00006003a008b85fb000b054500a9
:102ba8000a0078002c08b4008005780091003700ee
:102bb8008fb897000100e0000b00320061409000e0
:102bc800894f5000c30032000104780018047800cf
:102bd8000800e0000400320068409000894f50006f
:102be800faff3a000e0037008000200026f70700a1
:102bf800000478000000e0000e00320069409800f0
:102c08004fe19700724098008000eb001100980097
:102c1800210098008fb997000308780080bf9f00b3
:102c28006000200018f70700e0b79f000000e000f0
:102c3800aa003a00ffb297008505e80011c0b3006a
:102c480068003700200498008b85fb000b054500c1
:102c5800694180008a854400040037008b85fb00a9
:102c68000b054500694180008a8544008a0f56009b
:102c7800580036000e04e000a20032008046eb0047
:102c88001b44780050c0b300db4f10000400320032
:102c98000884fb00080545008a8544004700370082
:102ca80020022000f8f607008000780001f0a70055
:102cb8008100ea008100e900cf08de005b4178006e
:102cc800225898000b017800d241780033589800b8
:102cd800d281fb00430098005282fb004822dd00ad
:102ce8008301420043009800924190008381fb00d9
:102cf800230098000001eb001200980010029000d9
:102d080004a0a00014009800100290000490a000f5
:102d1800140098006022b80004089800150898006c
:102d280002589800cfe29700155898005009900073
:102d3800043020000401610005102000850f5100b7
:102d480011003a000300e00003003a0012002000de
:102d58002200980004003700f08f5100020036006e
:102d68000201200022009800200190000201e900e1
:102d7800130020000219dd002200980010019000c5
:102d880002a0a100120098002001900032009800d3
:102d9800efb19700a3019000030878006fb2970085
:102da800200298008d46e8000884fb0008054500cd
:102db8008a8544000104e0000a003a008a0f5600a0
:102dc800070036008d4f5700adff3e008040eb00f6
:102dd800040037008046eb008d4078000100370082
:102de8008040eb008ecf560007003a000104e00057
:102df80008003a008a0f560035ff3e008fbc970046
:102e08008040eb00040037008fbc970011c0b3006e
:102e1800010037008fbc97000040eb000900e0007c
:102e2800260032000104e0001c00320001003700d7
:102e38008a04780019057800190490000800e00059
:102e4800100032009802780095049800280090003d
:102e58000000e0000600320090007800210498008d
:102e68006ef60700280090000000e000faff3a0024
:102e78000800780069f60700190490000800e000cf
:102e8800f0ff3a000900780064f607000a00e00045
:102e9800e7ff3a000040eb0008003700c079210046
:102ea8000fe99700024878009fe997000380fb002c
:102eb80020bd880049bd880010c0b3004f077800c6
:102ec8004f06be004f05be004f04be000f01b10003
:102ed800000006000fbc970051ff37001802900051
:102ee80004087800afea9700254098008000eb00be
:102ef80021009800100498000504e00051ff3200fa
:102f080056ff37008046eb00baff37000200fa0090
:102f1800889fbe008a9fbe008c9fbe0090bd800027
:102f28000000e00025003200087b2100497b2100d9
:102f3800eb7a2100fc792100faff270018007800bd
:102f480009017800e20f500004003c000001e8008d
:102f58006c11b900660141000b0141009200780034
:102f680020072000808f5000020032008a8f500016
:102f780004003a000281e800a30020001c40780009
:102f880011fe0700622480008c24ef00217b2100c1
:102f98001100e9008008780098007800e28f50005e
:102fa80002003c00010ce80001003700000ceb00b7
:102fb800622488000000e000e0ff3a0080418000c1
:102fc800e10f40000300320080418000a0418800ea
:102fd80030a8ef0000f020003408b60001202000df
:102fe800810f5000a801320006003e000000e000fa
:102ff8000e00320001102000810f50000e043a002c
:103008008b00370001402000810f5000b5033200cb
:1030180001502000810f5000d203320001302000ff
:10302800810f500004043a00d0013700000f20003f
:103038003408b600f00f500056003200010220009c
:10304800810f50005a0032000000e000fa033a00f5
:1030580021fe07008000eb0050bd800001087800c9
:10306800a07a210010017800110198001001780061
:103078009201900003a0a0001301980010017800ad
:10308800920190000390a0001301980010017800ad
:103098009201900003d0a00013019800100178005d
:1030a8004301200003119800030420004301980005
:1030b800100178006022b8000409980015099800ea
:1030c800100078000041eb00215898000258980041
:1030d800500a9000f3cf2f00830162005308980034
:1030e80080c1eb001358980030c0b3003fe8b70028
:1030f800c079210002487800d07921000248780080
:10310800e07921000248780061bd880041bd88004f
:103118003828ef008c24ef00f00f2000502488009e
:10312800c108200025482000958a6000d1072000aa
:10313800012488009024ef0070248800008021007a
:103148004800de00c024880080002000a0248800f9
:10315800a1002000a1248800a024880000032000ea
:10316800302488002000200030258800a824ef00a3
:103178009624ef00aae4a900a004200000258800f6
:1031880000ff20003408b60070004000a04188000d
:10319800a90337004008ab00a703320000ff200056
:1031a8003408b60070004000a0418800a203370030
:1031b8000040eb00a0f79f0020c3b300b0f79f00ca
:1031c80024002000050020006e8157009106200091
:1031d80000c0eb00fd2f07000004e00010003200e3
:1031e80010002000402488008ec0a900f18f2f0015
:1031f800720680008280600000602000010070007c
:10320800700688009ec0a80000ff20003408b600a1
:1032180070004000a04188008cc4a80086033700d5
:103228004008a90000012000a0418800820337005f
:10323800000f20003408b60001022000810f500062
:103248007c00320005003e000000e0000a00320069
:10325800f00f500078033a001c00370001032000eb
:10326800810f5000d000320001042000810f50006f
:1032780071033a00fe003700a04180006f00600033
:1032880003003200e20f50006b033a000a003700d7
:1032980010002000502488008c04a800b00f2000e3
:1032a80090418800000420000024880082c4a800ff
:1032b8003428ec006003370000ff20003408b60013
:1032c80070004000a04188005b033700a0418000e7
:1032d8006f006000e20f500044003200e40f50001d
:1032e8004b0032000000e00053033a00e041800048
:1032f8000000e0000100320048f5070080002000cf
:1033080061f50700e04188000000e00006003a008f
:1033180031c3b300007a2100014878000050200032
:10332800a0418800440337000040eb00c179210028
:1033380080487800d179210080487800c07a21003f
:103348000008eb0030c0b3003ee8b700d000200012
:1033580050258800ac24ef00ae24ef00b024ef0025
:10336800b224ef00b424ef00b624ef00b824ef0035
:10337800ba24ef00bc24ef00be24ef00c024ef0005
:10338800c224ef00c424ef00c624ef00c824ef00d5
:1033980094e4ab0008003a00c07a21001000a000b5
:1033a80001c8b300e0792100014878000008200036
:1033b800b0248800aae4a8009424a8009424a900b2
:1033c800c07a21001040a1001050a1009484a800e8
:1033d8003003200090418800000420000024880069
:1033e80082c4a8003428ec00130337009484a90091
:1033f8009404a800b0002000904188000004200038
:103408000024880082c4a8003428ec000a0337008e
:10341800f000200060248800f00f2000802488003d
:1034280000ff20003408b60070004000a04188006a
:1034380001033700a04180006f006000e10f5000d9
:103448001e00320003003900e20f5000fa023a0071
:103458002f003700704180000000e00002003200b9
:10346800eef407002e28ef00e141800000c8b30009
:103478008048780060c0b300904098000040eb009e
:10348800a040980012c0b300b2409800c040980015
:10349800d040980082c0b300e2409800f040980005
:1034a80084002000810178000401780050bd80006c
:1034b800bcfb07003428ec00df02370050bd800059
:1034c800900090000198a300db02320010009000e9
:1034d8000088a3000c003200e041800040409000ca
:1034e800e94f500006003a0051c3b300007a2100aa
:1034f8000148780000502000a0418800ce02370023
:103508003428ec00cc02370072f90700ca023700f1
:10351800e84180001880fb00dbf407007041880058
:103528000000e00006003a0031c3b300007a210031
:103538000148780000502000a0418800be023700f2
:1035480018487800f84090008180fb0050bd80004a
:103558004100980008007800b0f4070050bd8000d2
:1035680040009000c8f40700e04188000000e00037
:1035780006003a0031c3b300007a21000148780000
:1035880000502000a0418800ab02370030c0b300d3
:103598003ee8b70000ff20003408b6007000400085
:1035a800a0418800a4023700a04180006f0060009d
:1035b800e10f50001c00320003003900e20f5000f8
:1035c8009d023a00230037003888ab009a023a007f
:1035d800e141800000c8b3008048780060c0b300b3
:1035e800904098000040eb00a040980012c0b30043
:1035f800b2409800c0409800d040980072418000c6
:1036080012417800e2409800f04098007341800031
:103618001382fb008200200050bd800061fb070080
:103628003428ec008402370050bd800090009000e0
:103638000198a30080023200100090000088a300c7
:10364800020032003428ec007b02370021f9070021
:103658007902370030c0b3003ee8b70000ff200011
:103668003408b60070004000a0418800720237009c
:1036780085f9070000f020003408b6000010b000fb
:10368800a04188006c023700000f20003408b60003
:1036980069023a00a04180006f006000e10f50000d
:1036a8001a00320003003900e20f500062023a00ab
:1036b80021003700f279210010c0b30000497800da
:1036c800e14180000040eb008048780053c0b3001f
:1036d8009340980012417800a2409800b0409800aa
:1036e800c0409800d0409800e0409800f040980012
:1036f8000002eb00840178008200200050bd8000a9
:103708004cfb07003428ec004b02370050bd80000a
:10371800900090000198a30047023200100090002a
:103728000088a300020032003428ec00420237006f
:10373800e8f807004002370061bd8000e1806000c2
:10374800c708dd00f2792100e079210012c8700075
:1037580030c0b3003ee8b70000f020003408b600df
:103768000010b000a041880033023700000f20008d
:103778003408b60001022000810f5000900032008a
:1037880005003e000000e0000d003200f00f500080
:1037980029023a002d00370001042000810f500053
:1037a8004801320001052000810f5000530132000a
:1037b80001032000810f50001f023a00c0003700ab
:1037c8007041800090559000148420000b4a7800c6
:1037d80030bd80000000e00003003a000e00370012
:1037e80008007800020037000005eb00697a210024
:1037f800100490001000780008f4070030bd800025
:103808000a0878001900780004f40700880c78008a
:103818000800e000f2ff3a000b04e00006003a005e
:1038280091c3b300007a21000148780000502000bd
:10383800a04188000002370000ff20003408b600cd
:1038480070004000a0418800fb013700a0418000c3
:103858006f006000e10f50001a00320003003900c9
:10386800e20f5000f4013a0021003700e1418000e6
:1038780000c8b3008048780060c0b300904098004a
:103888004148ed00a040980020c0b300b040980027
:103898000040eb00c0409800d040980082c0b300c0
:1038a800e2409800f04098008400200081017800f0
:1038b8000401780050bd8000bafa07003428ec00f3
:1038c800dd01370050bd8000900090000198a300f2
:1038d800d9013200100090000088a30002003200d5
:1038e8003428ec00d40137007af80700d2013700f9
:1038f80060002000e4f30700000478000800e000fe
:1039080006003a0031c3b300007a2100014878006c
:1039180000502000a0418800c7013700ea4180001c
:10392800e30445000a85e8009980fb00c808dd002b
:103938001a80fb0000804000d3f30700000c7800d9
:103948000000e00008003a0008007800b3f3070020
:1039580031c3b300007a21000148780000502000ec
:10396800a0418800b40137001981fb004811dd002f
:103978009a80fb008100410021409800c808de00c1
:1039880031409800617a21001101780012049800f2
:103998008808780060418800148420001442780068
:1039a8004444980030c0b3003ee8b70000ff200050
:1039b8003408b60070004000a04188009e0137001e
:1039c800a04180006f006000e10f50002400320029
:1039d80003003900e20f500097013a002b0037002e
:1039e800e141800000c8b3008048780060c0b3009f
:1039f800904098004148ed00a040980020c0b300d6
:103a0800b04098000040eb00c0409800d0409800bb
:103a180030bd80001000780020409000e040980001
:103a280030bd80001000780030409000f0409800d1
:103a380030bd800090017800234090000080fb009a
:103a4800334290004822dd0004027000820020000a
:103a580050bd800053fa07003428ec007601370087
:103a680050bd8000900090000198a30072013200c0
:103a7800100090000088a300020032003428ec00f7
:103a88006d01370013f807006b01370030c0b30031
:103a98003ee8b7004148ed0041e8b70003003200b6
:103aa80000312000a04188006301370000ff20009a
:103ab8003408b60070004000a04188005e0137005d
:103ac800a04180006f006000e10f5000410032000b
:103ad80005003900e20f500060003200e30f50008b
:103ae80055013a0068003700baf90700c07921008b
:103af800904078000104e00010003a0030bd8000da
:103b0800104288000000e000230032001000780016
:103b180060418800c0fb07000004e0001e003a0076
:103b2800acf9070010428000100090001042880095
:103b38000000e000f5ff3a001700370030bd8000b4
:103b4800104288000000e0000c0032004041900064
:103b580082cf500009003200100090000000e00001
:103b680002003a00104288000400370040419000eb
:103b780082cf5000f8ff3a00104288001000780009
:103b880060418800a4fb07000004e00002003a003e
:103b980090f907004228ef0060bd80000028a300cc
:103ba8000a0032004208e20006003a0041c3b300ae
:103bb800007a21000148780000502000a0418800c8
:103bc8001d0137003428ec001b0137003428ec00b5
:103bd8001901370060bd80000028a3001a003a00d0
:103be800c07a21001020a000e14180008048eb004d
:103bf80032c0b300924098001038a300030032008e
:103c080002407800a04098000200370040c0b3008e
:103c1800a04098000040eb00b0409800c0409800d9
:103c2800d0409800e0409800f04098000002eb0077
:103c3800840178008200200050bd8000fdf9070053
:103c48003428ec00fc00370000ff20003408b600e0
:103c580070004000a0418800f700370050bd800088
:103c6800900090000198a300f3003200100090002b
:103c78000088a300020032003428ec00ee00370070
:103c880094f70700ec00370030c0b3003ee8b700f7
:103c98004208e20006003a0041c3b300007a21005e
:103ca8000148780000502000a0418800e200370059
:103cb80000ff20003408b60070004000a0418800d2
:103cc800dd003700f07921001082fb008002eb0054
:103cd8000001eb00c107200000c0eb003b2d0700ee
:103ce8000004e000d4003a0000ff20003408b600c9
:103cf80070004000a0418800cf003700a04180003c
:103d08006f006000e10f50001a0032000500390012
:103d1800e20f500022003200e30f5000c6003a00c4
:103d280023003700e14180000040eb008048780024
:103d380092c0b30092409800c279210012417800e5
:103d4800a2409800b0409800c0409800d040980029
:103d5800e0409800f04098000002eb0084017800f1
:103d68008200200050bd8000b2f907003428ec0022
:103d7800b100370050bd8000900090000198a3006a
:103d8800ad003200100090000088a300020032004d
:103d98003428ec00a80037004ef70700a6003700cb
:103da80030c0b3003ee8b7003428ec00a20037006a
:103db80000f020003408b6000010b000a0418800d0
:103dc80060bd80000068a30015003200107a210051
:103dd8009040780001407800a2c0b3000440bc00c5
:103de800437e210002804100630279003001900087
:103df800c0019000f0792100104078000400010013
:103e08000004e0001f003a0091c3b300007a2100cb
:103e18000148780000502000a041880019003700b0
:103e280048bd80000800e00016003200497e2100ed
:103e3800fa7921000b7a21009cc3b3000d502000b1
:103e4800f840900001407800a2c0b3000440bc00d4
:103e5800028044006902790030019000c00190009e
:103e68001a407800040001000004e00002003a0053
:103e78008c4d7800ad418800180478000800e000f7
:103e8800efff3a0060bd80000078a3006a003200ae
:103e9800207a21009040780001407800a2c0b30049
:103ea8000440bc00437e2100028041006302790087
:103eb80030019000c0019000f07921001040780096
:103ec800040001000004e0005b003a0091c3b30065
:103ed800007a21000148780000502000a0418800a5
:103ee80055003700000f20003408b600f00f5000ce
:103ef80051003a00a04180006f006000e30f5000bd
:103f08000c003200e50f500013003200e10f5000a2
:103f180049003a009444a8005001200090418800cc
:103f2800000420000024880082c4a8003428ec0083
:103f3800410037009444a9009404a800b000200070
:103f480090418800000420000024880082c4a80052
:103f58003428ec003800370000402000a0418800d9
:103f680035003700000f20003408b60032003a0050
:103f780080002000a02488008c24ef00f00f20008f
:103f880050248800c10820002248200012896000bf
:103f9800d1072000012488009024ef0070248800b5
:103fa8008c04a800007a210010407800c1c6b30034
:103fb80042c3b300824f50001400320082407800a0
:103fc800814f500008003e00d1c6b300e74f5000b3
:103fd8000e003200f1c6b30032c3b300824f500066
:103fe80009003a000900370051c6b30052c3b300b4
:103ff800824f500005003200e1c6b30092c3b300ff
:10400800824f50000100320001c7b3008180fb00dd
:104018001400200005002000427a2100f0792100d8
:1040280010407800692c070000ff20003408b60013
:1040380070004000a04188004f06be004f05be003a
:104048004f04be000080fa00000006000004e000f3
:1040580016003a0043bd80000300e000190032005a
:10406800130190000200e0000c00320022009000d2
:104078000000e000060032009000900001b0a100ae
:1040880011009800100078000000e000faff3a00e4
:10409800120178000200e000f4ff3a009301780072
:1040a8000300e000eeff3a00060037007af7070049
:1040b8000000e000030032009000900001b0a10071
:1040c80011009800000006008f87e800889fbe0056
:1040d8008a9fbe008c9fbe008e1f78000146780024
:1040e8000245780083047800040478008505780088
:1040f800060778008746780061c0b300f27921008e
:10410800924f100066003a0002f02000a0418000a3
:104118000001610011c0b30000402000800f510071
:104128005f003a0050bd80001000900001c1b3004c
:104138000098a3005a003200eb4f55002e003a00b9
:1041480040bd800031c0b3000000e00054003200e0
:10415800e04090008180fb00888f500057003200bb
:10416800100078000000e00048003200e0409000b5
:104178008180fb00888f5000f9ff3a004f0037001c
:10418800220190000200e0000b0032009201900032
:1041980031c0b3000398a30004003a004000370080
:1041a800920090000198a3003a00320012017800b2
:1041b8000200e000faff3a001001900031c0b3009d
:1041c8000200e00036003200a24090008180fb002f
:1041d800898f50003e003200120178000200e00092
:1041e8002e003200a24090008180fb00898f500091
:1041f800f9ff3a0036003700e14f550006003a0053
:104208000900e00004003a00e24f560002003e00b8
:10421800084078008dff0700e14180008c48780055
:104228009a409800a9409800c84cde00b940980010
:10423800c84098004844de00d8409800eb409800f9
:104248004858de00f040980050bd80002fe99700e4
:10425800125898000d04e00006003a000b0278009e
:104268008e0178008200200072f807008040eb0081
:104278000b0037000b0278008e01780082002000c6
:1042880048f807008040eb000500370031c0b30054
:104298000300370031c0b3000100370031c0b3005c
:1042a800014078004f0778004f06be004f05be005a
:1042b8004f04be002f00b10000000600200190004e
:1042c80031c0b3000200e000adff3a00f4ff370050
:1042d80022009800d0ff370063bd8000d2cdb30024
:1042e8000308a30001003a00d2c5b300b34180001f
:1042f800530a90000430b20001003a000244a100c1
:10430800530a90000430b20003102000830f5200bb
:1043180001003a000204a1000281fb005225880036
:10432800e27921001281fb00b22488008180fb0021
:10433800c408dd00f007b20001007000f024880016
:104348003888a80000000600889fbe00e94f50008a
:104358000f003a0062bd8000418021000248a3009e
:1043680001003a0001802100c27a21009201780000
:10437800c419de008381ea00e1816100c419dd000f
:10438800120278000440a1000309720023003700dc
:1043980062bd8000c18021000258a30001003a00dc
:1043a80081802100c27a210092017800c519de00bf
:1043b8008381ea00e1816100c519dd0012027800fd
:1043c8000450a10003097200ed4f500013003a0099
:1043d800b241800072039000020c9000920c900091
:1043e800420290008003eb000803530089835b00be
:1043f8008002eb00840f5300858f5b0002003600bb
:10440800420090002600370072009000020a9000d7
:10441800920a90000400500021003700b241800049
:10442800520a90000430b20003102000830f52009b
:1044380008003a00e94f500002003a00420090009c
:1044480041003700020a9000920a900004007800a8
:104458003d00370052049000e2049000020b9000e7
:10446800920b9000420290000603540087835c0080
:104478008002eb00840f5300858f5b00020036003a
:10448800420090003000370052039000e203900091
:10449800020a9000920a9000040053002a00370094
:1044a80022099000920098000e003700320a90000e
:1044b80032099000124190000281fb000201e800dd
:1044c8006611b9006402790094009800050037006d
:1044d800320a9000920990000209900002014200fd
:1044e800920098000041eb0092409800f03fb20023
:1044f80002c02f00110161000200700080087800de
:10450800b241800092019000cb19de00e181610088
:10451800ce19dd0000e0a10000807100800878005d
:10452800120190004a11de00610161004b11dd00ab
:1045380000b0a1000000710000f0a0008008780021
:104548004f04be0000000600520a90000430b2007a
:1045580003102000830f5200ddff3a00d3ff37001d
:10456800889fbe008a9fbe008c9fbe00a04180002d
:104578003888ab00e0023a000044eb003808ab0092
:10458800d8013a0008407800c6f607000004e000a9
:10459800d3013200b041800080589000010fb20072
:1045a80002022000828f5000940032000203200093
:1045b800828f50002a013200f08f5000c1013a006a
:1045c80080589000ef806000e18f500014003200a6
:1045d80003003c000100e00006003200b90137008a
:1045e800e28f50001e003200ef8f5000b5013a00f4
:1045f8004f0037009000900001b0a1001100980012
:10460800d0c0b30050ff0700b04180002058900090
:10461800d1c0b30030ff07003808a800b602370041
:1046280000099000900990005200980063009800db
:10463800b04180009000900001b0a00011009800e7
:1046480090c0b30040ff0700b041800020589000a0
:1046580091c0b30020ff07003808a800a602370061
:104668008040eb0001589800b04180009000900015
:104678000190a0001100980090bd8000e30f500049
:1046880027003c00217b21008008e80070bd8000e5
:10469800e20f500003003c00e17a21008008e800a6
:1046a80002003700e07a21000008eb00e27a2100de
:1046b800920178006c18b90080007800010241006e
:1046c8002007200030029800b0418000000b9000c5
:1046d800900b900046029800570298000302e800e9
:1046e8006c22b900b00b900007317a00c27b210020
:1046f800010141008041eb0013419800a05990004e
:1047080003497800e27b210081004100305a900083
:104718008448780010589000904098007402370040
:1047280081c0b300b0418000315898007002370052
:104738008040eb0001589800b04180009000900044
:104748000190a0001100980090bd8000e30f500078
:1047580026003c00217b21008008e80070bd800015
:10476800e20f500003003c00e17a21008008e800d5
:1047780002003700e07a21000008eb00e07a21000f
:10478800100178006c12b9008400780081014000a3
:10479800f4ff2700b40198006033b800c601980000
:1047a800d70198000201e8006c11b900020040002e
:1047b8000008eb00b0418000c27b210001014100ec
:1047c800c05b900017419800a059900003497800f9
:1047d800e27b210081004100305a90008448780033
:1047e80010589000904098004102370081c0b300f3
:1047f800b0418000315898003d0237008058900041
:10480800ef806000e28f50001e00320005003c007f
:104818000100e00008003200e18f500029013a0051
:1048280010003700e38f500026003200ef8f500051
:1048380024013a00570037009000900001b0a10011
:1048480011009800d0c0b300bffe0700b04180003f
:1048580020589000d1c0b3009ffe07003808a80078
:104868002502370090c0b300b7fe0700b0418000b2
:104878002058900091c0b30097fe07003808a800a0
:104888001d023700000b9000900b90005600980016
:1048980067009800b04180009000900001b0a0002f
:1048a8001100980010c0b300a7fe0700b0418000b7
:1048b8002058900011c0b30087fe07003808a800f0
:1048c8000d0237008040eb0001589800b04180008d
:1048d800900090000190a0001100980090bd800009
:1048e800e30f500027003c00217b21008008e800ee
:1048f80070bd8000e20f500003003c00e17a210007
:104908008008e80002003700e07a21000008eb0088
:10491800e27a2100920178006c18b90080007800d2
:10492800010241002007200030029800b0418000b9
:10493800000b9000900b90004602980057029800d8
:104948000302e8006c22b900b00b900007317a002e
:10495800c27b2100010141008041eb001341980016
:10496800a059900003497800e27b210081004100b2
:10497800305a900084487800105890009040980071
:10498800db01370081c0b300b04180003158980086
:10499800d70137008040eb0001589800b0418000f3
:1049a800900090000190a0001100980090bd800038
:1049b800e30f500026003c00217b21008008e8001e
:1049c80070bd8000e20f500003003c00e17a210036
:1049d8008008e80002003700e07a21000008eb00b8
:1049e800e07a2100100178006c12b9008400780088
:1049f80081014000f4ff2700b40198006033b8003b
:104a0800c6019800d70198000201e8006c11b900ae
:104a1800020040000008eb00b0418000c27b21008a
:104a280001014100c05b900017419800a059900017
:104a380003497800e27b210081004100305a900050
:104a4800844878001058900090409800a8013700da
:104a580081c0b300b041800031589800a4013700ec
:104a680080589000ef806000e28f50001e003200f6
:104a780005003c000100e00008003200e18f500012
:104a880090003a0010003700e38f500026003200f3
:104a9800ef8f50008b003a005700370090009000cd
:104aa80001b0a10011009800d0c0b30026fe070095
:104ab800b041800020589000d1c0b30006fe070026
:104ac8003808a8008c01370010c0b3001efe07008c
:104ad800b04180002058900011c0b300fefd0700cf
:104ae8003808a80084013700000b9000900b900054
:104af8005600980067009800b04180009000900030
:104b080001b0a0001100980090c0b3000efe07008d
:104b1800b04180002058900091c0b300eefd07001e
:104b28003808a800740137008040eb00015898004d
:104b3800b0418000900090000190a0001100980002
:104b480090bd8000e30f500027003c00217b21002e
:104b58008008e80070bd8000e20f500003003c00b0
:104b6800e17a21008008e80002003700e07a21009d
:104b78000008eb00e27a2100920178006c18b90075
:104b880080007800010241002007200030029800d0
:104b9800b0418000000b9000900b900046029800f6
:104ba800570298000302e8006c22b900b00b90008d
:104bb80007317a00c27b2100010141008041eb00ee
:104bc80013419800a059900003497800e27b210026
:104bd80081004100305a90008448780010589000b5
:104be800904098004201370081c0b300b041800076
:104bf800315898003e0137008040eb00015898007a
:104c0800b0418000900090000190a0001100980031
:104c180090bd8000e30f500026003c00217b21005e
:104c28008008e80070bd8000e20f500003003c00df
:104c3800e17a21008008e80002003700e07a2100cc
:104c48000008eb00e07a2100100178006c12b9002e
:104c58008400780081014000f4ff2700b401980027
:104c68006033b800c6019800d70198000201e80037
:104c78006c11b900020040000008eb00b041800050
:104c8800c27b210001014100c05b900017419800e0
:104c9800a059900003497800e27b2100810041007f
:104ca800305a90008448780010589000904098003e
:104cb8000f01370081c0b300b0418000315898001f
:104cc8000b0137008040eb0001589800b04180008c
:104cd800900090000190a0001100980018c0b30047
:104ce8003808a8003828ab00f60032000201370067
:104cf800b041800080589000010fb20002042000eb
:104d0800828f50000400320002052000828f50007c
:104d1800db003a006d00370080589000ef8060009b
:104d2800e18f50000b003200ef8f50003900320045
:104d38000100e000d4003a0090c0b30082fd0700f3
:104d4800b04180002058900091c0b30062fd070078
:104d5800e90037008040eb0001589800b04180001e
:104d6800a002900035009800900090000190a000eb
:104d7800110098001a007800e30f500021003c0051
:104d8800000de80019007800e20f500002003c0016
:104d9800800ce80001003700800ceb001901780056
:104da8006c10b90080007800818144002007200041
:104db800b0019800b0418000000b9000900b90006b
:104dc800c6019800d70198000201e8006c11b900eb
:104dd800b00b900087347900018145008041eb00d9
:104de80013419800a05990000349780081004600bb
:104df800305a9000844878001058900090409800ed
:104e0800a400370081c0b300b04180003158980039
:104e1800a00037008040eb0001589800b0418000a6
:104e2800a002900035009800900090000190a0002a
:104e3800110098001a007800e30f50001f003c0092
:104e4800000de80019007800e20f500002003c0055
:104e5800800ce80001003700800ceb001900780096
:104e68006c01b90082007800018144003d0198007e
:104e78006033b80046019800570198000001e80027
:104e88006c11b900028044000008eb00b0418000ba
:104e980001814500c05b900017419800a05990001f
:104ea8000349780081004600305a90008448780011
:104eb80010589000904098007600370081c0b300e9
:104ec800b041800031589800720037008058900037
:104ed800ef806000e18f50000b003200ef8f500030
:104ee800390032000100e00069003a0010c0b30048
:104ef80015fd0700b04180002058900011c0b30094
:104f0800f5fc07007c0037008040eb000158980052
:104f1800b0418000a00290003500980090009000f9
:104f28000190a000110098001a007800e30f5000cb
:104f380021003c00000de80019007800e20f500045
:104f480002003c00800ce80001003700800ceb00f8
:104f5800190178006c10b900800078008181440044
:104f680020072000b0019800b0418000000b90009d
:104f7800900b9000c6019800d70198000201e80044
:104f88006c11b900b00b900087347900018145009d
:104f98008041eb0013419800a05990000349780024
:104fa80081004600305a90008448780010589000dc
:104fb800904098003700370081c0b300b0418000ae
:104fc80031589800330037008040eb0001589800b2
:104fd800b0418000a0029000350098009000900039
:104fe8000190a000110098001a007800e30f50000b
:104ff8001f003c00000de80019007800e20f500087
:1050080002003c00800ce80001003700800ceb0037
:10501800190078006c01b900820078000181440011
:105028003d0198006033b800460198005701980088
:105038000001e8006c11b900028044000008eb0090
:10504800b041800001814500c05b90001741980085
:10505800a05990000349780081004600305a90001a
:105068008448780010589000904098000900370054
:1050780081c0b300b0418000315898000500370066
:1050880018c0b3000300370018c0b3000100370090
:1050980018c0b3000804e0000f0032008040eb00a5
:1050a800b041800001589800b0418000a0029000f3
:1050b80035009800900090000190a0001100980021
:1050c800050037002a7b2100e97a2100cb7b2100eb
:1050d800ec7b2100fdff270030c0b300f1f307008f
:1050e8000004e00002ff3a003828a8000200370058
:1050f8000044eb00fafe37004f06be004f05be0025
:105108004f04be000000060050bd800090009000d3
:1051180010c0b3000198a3001f00320043bd8000f7
:105128000040eb000300e0001b0032001301900078
:105138000200e00010003200220090000000e000b1
:105148000a003200900090000198a30004003a0081
:105158000e003700900090000198a3000d00320067
:10516800100078000000e000faff3a001201780011
:105178000200e000f0ff3a00930178000300e0002d
:10518800eaff3a000040eb000300370010c0b3000c
:105198000100370010c0b30000000600881f780027
:1051a8000144780061c0b300f2792100924f1000e9
:1051b80013003a0002f02000a041800000016100c5
:1051c80011c0b30000402000800f51000c003a00cd
:1051d800cdff070021c0b3000004e00008003a003a
:1051e800c07921000848780080c0eb0050bd8000dd
:1051f8001158980000332000a04188008040eb003f
:10520800014078004f047800000006008ec0a90015
:1052180082c4ab000e00320080c4ab000c00320028
:1052280000042000002488003208e2000800320050
:105238003228ed003208e20005003a0082c4a900d5
:1052480000f020003408b600010032003428ec00d9
:105258008cc4ab000a0032008ac4ab0008003200dc
:105268008cc4a900000420005024880000032000fa
:105278003408e30002003a00001020008041880052
:105288008c04ab00060032008a04ab000400320034
:1052980010002000502488008c04a9003028ef005a
:1052a8008c64ab00260132008a64ab002401320012
:1052b8008c24ab00080032008a24ab0006003200c0
:1052c800b0418000d00890000130b20000102000ea
:1052d800808f50001a013a003888a9009124800074
:1052e8008000200050248800b041800020599000a0
:1052f8000281fb00f3248000028169006f016100d4
:105308000e013a000138a30005003200c2802100d6
:105318000128a30006003a0082802100040037001b
:10532800428021000128a30001003a0002802100e8
:1053380001c023009280600003802000838f50000a
:1053480046003a00f13f200092806000000990007a
:105358009009900002814000e0814900020898000d
:1053680013089800b04180000001eb007208980013
:10537800100190004b11de000281ea00610161001a
:105388004b11dd009001900003b0a10003017100f2
:1053980012009800b041800000599000f04f510071
:1053a800080032008059900002c2b30082cf510039
:1053b800040032008059900002c3b30082cf51002c
:1053c8000f003a00000a9000900a900070019000c7
:1053d8008001eb00820f5200838f5a00d7003900fa
:1053e8006011b8000208980013089800b0418000c6
:1053f800805890008140e80001589800cf0037009d
:10540800d00990000330b20002102000828f5100b2
:105418000a00320040019000828f500007003900d6
:10542800000a9000900a900050019000e00190005e
:10543800820f5200838f5a00c000390090009000fc
:105448000180a00011009800b041800080589000b1
:105458008140e80001589800b800370003c02000d8
:10546800838f50000300320003c02200838f500056
:105478002c003a00f13f2000928060000009900063
:105488009009900002814000e081490002089800dc
:1054980013089800b04180000001eb0072089800e2
:1054a800100190004b11de000281ea0061016100e9
:1054b8004b11dd009001900003b0a10003017100c1
:1054c80012009800b0418000d00990000330b2006b
:1054d80002102000828f51000a0032004001900023
:1054e800828f500007003900000a9000900a90004f
:1054f80050019000e0019000820f5200838f5a0003
