:020000040000fa
:080000000002040000000000f2
:020000040000fa
:0400080038030000b9
:020000040000fa
:04000c0018030000d5
:020000040000fa
:040010001c030000cd
:020000040000fa
:0400140020030000c5
:020000040000fa
:0400180024030000bd
:020000040000fa
:04001c0038030000a5
:020000040000fa
:0400200038030000a1
:020000040000fa
:04002400380300009d
:020000040000fa
:040028003803000099
:020000040000fa
:04002c003803000095
:020000040000fa
:040030003803000091
:020000040000fa
:04003400f0020000d6
:020000040000fa
:040038003803000089
:020000040000fa
:04003c003803000085
:020000040000fa
:040040003803000081
:020000040000fa
:04004400380300007d
:020000040000fa
:040048003803000079
:020000040000fa
:04004c003803000075
:020000040000fa
:040050003803000071
:020000040000fa
:04005400380300006d
:020000040000fa
:040058003803000069
:020000040000fa
:04005c003803000065
:020000040000fa
:040060003803000061
:020000040000fa
:04006400380300005d
:020000040000fa
:040068003803000059
:020000040000fa
:04006c003803000055
:020000040000fa
:040070003803000051
:020000040000fa
:04007400380300004d
:020000040000fa
:040078003803000049
:020000040000fa
:04007c003803000045
:020000040000fa
:040080003803000041
:020000040000fa
:04008400380300003d
:020000040000fa
:040088003803000039
:020000040000fa
:04008c003803000035
:020000040000fa
:040090003803000031
:020000040000fa
:04009400380300002d
:020000040000fa
:040098003803000029
:020000040000fa
:04009c003803000025
:020000040000fa
:0400a0003803000021
:020000040000fa
:0400a400380300001d
:020000040000fa
:0400a8003803000019
:020000040000fa
:0400ac003803000015
:020000040000fa
:0400b0003803000011
:020000040000fa
:0400b400380300000d
:020000040000fa
:0400b8003803000009
:020000040000fa
:0400bc003803000005
:020000040000fa
:0400c0003803000001
:020000040000fa
:0400c40038030000fd
:020000040000fa
:0400c80038030000f9
:020000040000fa
:0400cc0038030000f5
:020000040000fa
:0400d00038030000f1
:020000040000fa
:0400d40038030000ed
:020000040000fa
:0400d80038030000e9
:020000040000fa
:0400dc0038030000e5
:020000040000fa
:0400e00038030000e1
:020000040000fa
:0400e40038030000dd
:020000040000fa
:0400e80038030000d9
:020000040000fa
:0400ec0038030000d5
:020000040000fa
:0400f00038030000d1
:020000040000fa
:0400f40038030000cd
:020000040000fa
:0400f80038030000c9
:020000040000fa
:0400fc0038030000c5
:020000040000fa
:0401000038030000c0
:020000040000fa
:0401040038030000bc
:020000040000fa
:0401080038030000b8
:020000040000fa
:04010c0038030000b4
:020000040000fa
:0401100038030000b0
:020000040000fa
:0401140038030000ac
:020000040000fa
:0401180038030000a8
:020000040000fa
:04011c0038030000a4
:020000040000fa
:0401200038030000a0
:020000040000fa
:04012400380300009c
:020000040000fa
:040128003803000098
:020000040000fa
:04012c003803000094
:020000040000fa
:040130003803000090
:020000040000fa
:04013400380300008c
:020000040000fa
:040138003803000088
:020000040000fa
:04013c003803000084
:020000040000fa
:040140003803000080
:020000040000fa
:04014400380300007c
:020000040000fa
:040148003803000078
:020000040000fa
:04014c003803000074
:020000040000fa
:040150003803000070
:020000040000fa
:04015400380300006c
:020000040000fa
:040158003803000068
:020000040000fa
:04015c003803000064
:020000040000fa
:040160003803000060
:020000040000fa
:04016400380300005c
:020000040000fa
:040168003803000058
:020000040000fa
:04016c003803000054
:020000040000fa
:040170003803000050
:020000040000fa
:04017400380300004c
:020000040000fa
:040178003803000048
:020000040000fa
:04017c003803000044
:020000040000fa
:04018000d0020000a9
:020000040000fa
:0402080038030000b7
:020000040000fa
:04020c0028030000c3
:020000040000fa
:040210002c030000bb
:020000040000fa
:0402140030030000b3
:020000040000fa
:0402180034030000ab
:020000040000fa
:04021c0038030000a3
:020000040000fa
:04022000380300009f
:020000040000fa
:04022400380300009b
:020000040000fa
:040228003803000097
:020000040000fa
:04022c003803000093
:020000040000fa
:04023000380300008f
:020000040000fa
:04023400380300008b
:020000040000fa
:040238003803000087
:020000040000fa
:04023c003803000083
:020000040000fa
:04024000380300007f
:020000040000fa
:04024400380300007b
:020000040000fa
:040248003803000077
:020000040000fa
:04024c003803000073
:020000040000fa
:04025000380300006f
:020000040000fa
:04025400380300006b
:020000040000fa
:040258003803000067
:020000040000fa
:04025c003803000063
:020000040000fa
:04026000380300005f
:020000040000fa
:04026400380300005b
:020000040000fa
:040268003803000057
:020000040000fa
:04026c003803000053
:020000040000fa
:04027000380300004f
:020000040000fa
:04027400380300004b
:020000040000fa
:040278003803000047
:020000040000fa
:04027c003803000043
:020000040000fa
:04028000380300003f
:020000040000fa
:04028400380300003b
:020000040000fa
:040288003803000037
:020000040000fa
:04028c003803000033
:020000040000fa
:04029000380300002f
:020000040000fa
:04029400380300002b
:020000040000fa
:040298003803000027
:020000040000fa
:04029c003803000023
:020000040000fa
:0402a000380300001f
:020000040000fa
:0402a400380300001b
:020000040000fa
:0402a8003803000017
:020000040000fa
:0402ac003803000013
:020000040000fa
:0402b000380300000f
:020000040000fa
:0402b400380300000b
:020000040000fa
:0402b8003803000007
:020000040000fa
:0402bc003803000003
:020000040000fa
:0402c00038030000ff
:020000040000fa
:0402c40038030000fb
:020000040000fa
:0402c80038030000f7
:020000040000fa
:0402cc0038030000f3
:020000040000fa
:0402d00038030000ef
:020000040000fa
:0402d40038030000eb
:020000040000fa
:0402d80038030000e7
:020000040000fa
:0402dc0038030000e3
:020000040000fa
:0402e00038030000df
:020000040000fa
:0402e40038030000db
:020000040000fa
:0402e80038030000d7
:020000040000fa
:0402ec0038030000d3
:020000040000fa
:0402f00038030000cf
:020000040000fa
:0402f40038030000cb
:020000040000fa
:0402f80038030000c7
:020000040000fa
:0402fc0038030000c3
:020000040000fa
:0403000038030000be
:020000040000fa
:0403040038030000ba
:020000040000fa
:0403080038030000b6
:020000040000fa
:04030c0038030000b2
:020000040000fa
:0403100038030000ae
:020000040000fa
:0403140038030000aa
:020000040000fa
:0403180038030000a6
:020000040000fa
:04031c0038030000a2
:020000040000fa
:04032000380300009e
:020000040000fa
:04032400380300009a
:020000040000fa
:040328003803000096
:020000040000fa
:04032c003803000092
:020000040000fa
:04033000380300008e
:020000040000fa
:04033400380300008a
:020000040000fa
:040338003803000086
:020000040000fa
:04033c003803000082
:020000040000fa
:04034000380300007e
:020000040000fa
:04034400380300007a
:020000040000fa
:040348003803000076
:020000040000fa
:04034c003803000072
:020000040000fa
:04035000380300006e
:020000040000fa
:04035400380300006a
:020000040000fa
:040358003803000066
:020000040000fa
:04035c003803000062
:020000040000fa
:04036000380300005e
:020000040000fa
:04036400380300005a
:020000040000fa
:040368003803000056
:020000040000fa
:04036c003803000052
:020000040000fa
:04037000380300004e
:020000040000fa
:04037400380300004a
:020000040000fa
:040378003803000046
:020000040000fa
:04037c003803000042
:020000040000fa
:04038000380300003e
:020000040000fa
:100400000ffe21000e7f22000e0188000000000078
:10041000000020000000e000020032000001200087
:100420002002880014000700b30007000000e0006d
:1004300003003a00406e2700010020000200370050
:100440000000200001002000810f70000100320038
:1004500014000700000020000000e000020032004d
:1004600000000200000000002478020000000000ec
:100470000040da000000fe004440a9002073200084
:100480000000e0000300320000002000a00188000e
:100490004440a800000006008a1f78008b1f7800e7
:1004a0000000060091018800800478000000eb0045
:1004b0001a003700e284440032a0b4009905ba0063
:1004c000e284440032a0b4009906ba00e2844400f9
:1004d00032a0b4000006eb00476fde00fd07b2005b
:1004e000636ce10003003a00ebff07000000eb0043
:1004f0000a003700606ce10004003a00005deb0088
:100500008b05e900fdff3e00040037006168e10053
:10051000010032000086eb000b00070019c7ba008b
:100520001905ba000e04e00003003a000a00e000da
:10053000e0ff3a0000000600fe07b2009e018800be
:100540008a047800f5ff3700395dba008b05e900b1
:100550000c003200295dba008b05e900080032006a
:100560000c00e00003003a00e284440032a0b40032
:10057000f5ff370019ddba008b05e900faff3a00f4
:100580008904e800e184440032a0b40000000600c1
:10059000000000000000000000000000000000005b
:1005a0003600f800809fbe00829fbe00849fbe0080
:1005b000869fbe003400f80000002000a0018800e3
:1005c000041307003400f9004f03be004f02be00c1
:1005d0004f01be004f00be003600f900004006008b
:1005e0003600f800809fbe00829fbe00849fbe0040
:1005f000869fbe003400f80000002000a0018800a3
:10060000a526070007290700fa2a07005628ec004c
:100610008460a9003400f9004f03be004f02be0001
:100620004f01be004f00be003600f900004006003a
:100630008020a900ffff37008060a900ffff37007e
:100640008040a900ffff37008080a900ffff37002e
:100650008020a900ffff37008060a900ffff37005e
:100660008040a900ffff37008080a900ffff37000e
:10067000ffff3700889fbe008004780020b980000b
:100680000000e00004003a000e0007000084eb00c8
:100690000000e0000800350028b980000900e000f3
:1006a0000500320009004400060007000000e000d9
:1006b00001003d000084eb00080078004f04be00fc
:1006c00000000600800078000100e00003003a000e
:1006d0000081210020b98800000005000080eb00a7
:1006e00002fe2100828f500002003e0021b98800e6
:1006f0000000eb0000000600000005006022b800ca
:10070000060220000000d0008180d2000482d200c6
:100710008582d2000000a0000202520083825a00ab
:10072000030031000202420083824a000000a1005f
:100730000603e900f3ff3a0000000600889fbe00b0
:100740008a9fbe008c9fbe006170210032b880007d
:100750000200e0000b003a006481400032b88800db
:1007600082b88800a100980071b8880021419000eb
:100770000204a000a2409800614190000204a00081
:10078000e2409800670440004244de004244dd003d
:1007900074b880000181210009fe21008184540089
:1007a0002d002000110009008d04d800800678007b
:1007b0000886e8000c0646008001eb0002003700c6
:1007c000130020000b027800a44090000108a30051
:1007d000020032000a003700120a78001401780083
:1007e000a24090000108a300fbff320088004200f5
:1007f000810f5100020039000800e00042003d0076
:10080000940578000b00a100848f5500edff3e0099
:10081000e18f5100eaff3a008d0f540002003600cc
:10082000890f5400140039006141b8006148b900d3
:10083000b4ff2f00050020000000520081805a0004
:10084000800f5100818f590002003500640544007b
:100850000a003700008121003afe21000005550002
:1008600008054500110009000985d8000980b90074
:1008700000057800010037000c0578000a007800b8
:100880007cff0700e10f400005003a0064054400ca
:100890000a00780077ff0700e10f40002b003200cc
:1008a00081b880008008780081b88000e481400031
:1008b00021419000830f5000020032000204a0008a
:1008c000010037000204a100a24098006405550011
:1008d0000a0540000a0878008ab888006170210083
:1008e000010d780082b88000a24090000104a000b1
:1008f00021419800a04090000104a10021409800ef
:100900008001eb00afff370071b88800810f510004
:10091000070036001101be0092b88800a3b8880015
:10092000940878000041eb0071b88000a240980064
:1009300073b88000030a7800a44090000104a0006e
:100940002142980064004200010037000000eb00e3
:100950004f06be004f05be004f04be00000006005b
:100960000000e000080032006400500071b8800010
:10097000810f50000100310070b88800a040900045
:100980000104a1002140980000000600889fbe00dd
:100990008a9fbe000004be000900e00007003a0084
:1009a0000000eb000800e00036003200080078008c
:1009b000ebff07000000eb00320037000800e0000a
:1009c00003003a00090078005cff07002d003700a3
:1009d000640054009005780068f897000008a300b0
:1009e0000200320008007800ddff070009007800ef
:1009f00052ff0700800478000000eb000900e000cf
:100a000020003200888f54001b00320069bd97001f
:100a10000905550042d5de0088855500c2ddde009f
:100a20000a0178008b0f5500010036000b01780099
:100a30004211dd00880078000900780014000700ea
:100a4000888f54000e0031004255dd000a854400b5
:100a5000880f55000a0036000804550042c4de0025
:100a60004244dd000884440090b88000a1b88000b2
:100a7000008cbe000200370008007800010037003b
:100a8000090078004f05be004f04be0000000600bc
:100a90008001780002003700b15978000201e900b6
:100aa0000200e000fcff3a000000060000017800b0
:100ab000b1417800035978000304e000fcff3a00dc
:100ac00000000600800078003104e000feff3a00dc
:100ad0000080ea000080400000000600889fbe0001
:100ae0000004be0008007800f6ff07000000440084
:100af00090cf140005003200880f50000200320031
:100b00000000e900faff37000000eb004f04be00d0
:040b100000000600db
:020000040000fa
:100b140041000000420000004300000044000000c7
:100b240045000000460000004700000048000000a7
:100b3400490000004a0000004b0000004c00000087
:100b44004d0000004e0000004f0000005000000067
:100b54005100000052000000530000005400000047
:100b64005500000056000000570000005800000027
:100b7400590000005a00000021000000e0ff0000be
:100b8400e1ff0000e5ff0000e2ff0000e3ff0000da
:100b9400c0000000c1000000c2000000c30000004b
:100ba400c4000000c5000000c6000000c70000002b
:100bb400c8000000c9000000ca000000cb0000000b
:100bc400cc000000cd000000ce000000cf000000eb
:100bd400d0000000d1000000d2000000d3000000cb
:100be400d4000000d5000000d6000000d8000000aa
:100bf400d9000000da000000db000000dc00000087
:100c0400dd000000de0000007801000000010000ab
:100c140002010000040100000601000008010000b8
:100c24000a0100000c0100000e0100001001000088
:100c34001201000014010000160100001801000058
:100c44001a0100001c0100001e0100002001000028
:100c540022010000240100002601000028010000f8
:100c64002a0100002c0100002e01000030010000c8
:100c74003201000034010000360100003901000097
:100c84003b0100003d0100003f0100004101000064
:100c94004301000045010000470100004a01000033
:100ca4004c0100004e010000500100005201000000
:100cb4005401000056010000580100005a010000d0
:100cc4005c0100005e0100006001000062010000a0
:100cd4006401000066010000680100006a01000070
:100ce4006c0100006e010000700100007201000040
:100cf4007401000076010000790100007b0100000e
:100d04007d010000910100009103000092030000a6
:100d14009303000094030000950300009603000071
:100d24009703000098030000990300009a03000051
:100d34009b0300009c0300009d0300009e03000031
:100d44009f030000a0030000a1030000a303000010
:100d5400a4030000a5030000a6030000a7030000ed
:100d6400a8030000a9030000aa0300001004000067
:100d74001104000012040000130400001404000015
:100d840015040000160400001704000018040000f5
:100d9400190400001a0400001b0400001c040000d5
:100da4001d0400001e0400001f04000020040000b5
:100db4002104000022040000230400002404000095
:100dc4002504000026040000270400002804000075
:100dd400290400002a0400002b0400002c04000055
:100de4002d0400002e0400002f0400000104000064
:100df40002040000030400000404000005040000d1
:100e040006040000070400000804000009040000b0
:100e14000a0400000b0400000c0400000e0400008f
:100e24000f04000060210000612100006221000025
:100e34006321000064210000652100006621000098
:100e44006721000068210000692100006a21000078
:100e54006b2100006c2100006d2100006e21000058
:100e64006f21000021ff000022ff000023ff00008b
:100e740024ff000025ff000026ff000027ff0000dc
:100e840028ff000029ff00002aff00002bff0000bc
:100e94002cff00002dff00002eff00002fff00009c
:100ea40030ff000031ff000032ff000033ff00007c
:100eb40034ff000035ff000036ff000037ff00005c
:100ec40038ff000039ff00003aff00000000000076
:100ed4006100000062000000630000006400000084
:100ee4006500000066000000670000006800000064
:100ef400690000006a0000006b0000006c00000044
:100f04006d0000006e0000006f0000007000000023
:100f14007100000072000000730000007400000003
:100f240075000000760000007700000078000000e3
:100f3400790000007a000000a1000000a200000077
:100f4400a3000000a5000000ac000000af000000fa
:100f5400e0000000e1000000e2000000e300000007
:100f6400e4000000e5000000e6000000e7000000e7
:100f7400e8000000e9000000ea000000eb000000c7
:100f8400ec000000ed000000ee000000ef000000a7
:100f9400f0000000f1000000f2000000f300000087
:100fa400f4000000f5000000f6000000f800000066
:100fb400f9000000fa000000fb000000fc00000043
:100fc400fd000000fe000000ff0000000101000021
:100fd40003010000050100000701000009010000f1
:100fe4000b0100000d0100000f01000011010000c1
:100ff4001301000015010000170100001901000091
:101004001b0100001d0100001f0100002101000060
:101014002301000025010000270100002901000030
:101024002b0100002d0100002f0100003101000000
:101034003301000035010000370100003a010000cf
:101044003c0100003e01000040010000420100009c
:101054004401000046010000480100004b0100006b
:101064004d0100004f010000510100005301000038
:101074005501000057010000590100005b01000008
:101084005d0100005f0100006101000063010000d8
:101094006501000067010000690100006b010000a8
:1010a4006d0100006f010000710100007301000078
:1010b40075010000770100007a0100007c01000046
:1010c4007e01000092010000b1030000b2030000a1
:1010d400b3030000b4030000b5030000b60300002e
:1010e400b7030000b8030000b9030000ba0300000e
:1010f400bb030000bc030000bd030000be030000ee
:10110400bf030000c0030000c1030000c3030000cc
:10111400c4030000c5030000c6030000c7030000a9
:10112400c8030000c9030000ca0300003004000023
:1011340031040000320400003304000034040000d1
:1011440035040000360400003704000038040000b1
:10115400390400003a0400003b0400003c04000091
:101164003d0400003e0400003f0400004004000071
:101174004104000042040000430400004404000051
:101184004504000046040000470400004804000031
:10119400490400004a0400004b0400004c04000011
:1011a4004d0400004e0400004f04000051040000f0
:1011b40052040000530400005404000055040000cd
:1011c40056040000570400005804000059040000ad
:1011d4005a0400005b0400005c0400005e0400008c
:1011e4005f040000702100007121000072210000e2
:1011f4007321000074210000752100007621000095
:101204007721000078210000792100007a21000074
:101214007b2100007c2100007d2100007e21000054
:101224007f21000041ff000042ff000043ff000057
:1012340044ff000045ff000046ff000047ff000098
:1012440048ff000049ff00004aff00004bff000078
:101254004cff00004dff00004eff00004fff000058
:1012640050ff000051ff000052ff000053ff000038
:1012740054ff000055ff000056ff000057ff000018
:1012840058ff000059ff00005aff00000000000052
:1012940010040000110400001204000013040000f4
:1012a40014040000150400001604000017040000d4
:1012b40018040000190400001a0400001b040000b4
:1012c4001c0400001d0400001e0400001f04000094
:1012d4002004000021040000220400002304000074
:1012e4002404000025040000260400002704000054
:1012f40028040000290400002a0400002b04000034
:101304002c0400002d0400002e0400002f04000013
:1013140030040000310400003204000033040000f3
:1013240034040000350400003604000037040000d3
:1013340038040000390400003a0400003b040000b3
:101344003c0400003d0400003e0400003f04000093
:10135400912500009225000093250000022500003d
:1013640024250000612500006225000056250000a8
:101374005525000063250000512500005725000075
:101384005d2500005c2500005b25000010250000a1
:1013940014250000342500002c2500001c25000025
:1013a400002500003c2500005e2500005f250000ac
:1013b4005a25000054250000692500006625000018
:1013c40060250000502500006c2500006725000002
:1013d40068250000642500006525000059250000eb
:1013e4005825000052250000532500006b250000fd
:1013f4006a250000182500000c250000882500003f
:10140400842500008c250000902500008025000024
:1014140040040000410400004204000043040000b2
:101424004404000045040000460400004704000092
:1014340048040000490400004a0400004b04000072
:101444004c0400004d0400004e0400004f04000052
:1014540001040000510400000404000054040000ce
:1014640007040000570400000e0400005e0400009e
:10147400b000000019220000b70000001a2200008a
:1014840016210000a4000000a0250000a000000018
:10149400006300006f6e000066690000672e0000a4
:1014a400696e0000690000002e2e0000006d00002f
:1014b400616900006e2e000074610000700000007d
:1014c4007361000076650000643000003030000075
:1014d4002e74000061700000001500000810000068
:1014e4002c190000081500002c1e000037270000ee
:1014f40027000000120e0000005100002803000025
:101504000303000003030000030300000f120000a4
:10151400040700002cf9000003f900002800000073
:101524001200000016000000001500002001000059
:10153400381600000c000000534400002063000033
:101544006172000064160000000100001520000014
:1015540011170000142000001113000020110000d6
:1015640016000000121500002006000017150000e8
:1015740020010000381400002005000016000000bf
:101584001313000020050000160e0000124900008d
:101594006e6600006f160000011400004c6f00001e
:1015a400616400003a160000011500005361000058
:1015b400766500003a15000020010000381500008f
:1015c4002001000017e10000e5e00000e4e2000073
:1015d400e64c00002f300000f5f60000f7e80000ac
:1015e400311e0000e91f0000ea200000eb2100008a
:1015f400ec220000ed230000ee240000ef250000a3
:10160400f0260000f1270000f22d0000f32e000068
:10161400f4310000f5330000f8340000f93600001e
:10162400fa370000fb380000fc0e0000e82f000031
:10163400f6300000f7ff0000ffff0000ff0100008c
:1016440027180000111200001921000026150000bf
:101654001e1600000e1700001f0d000005020000fa
:101664001a090000221d0000200a000010250000b5
:10167400080300000b1300001b230000241c0000bf
:10168400140c00000406000043440000ff0700009f
:101694009e8e0000e5dd0000d19c00008d9c0000c2
:1016a4009c9f000097a000004bff0000ffff00007c
:1016b400ffff0000ffff0000ffff0000ffff00002e
:1016c400ffff0000ffff0000ffff0000ffd6000047
:1016d400ffff000054630000645c0000ffa00000f2
:1016e400a79e000096060000030b0000131b0000d9
:1016f400232400001c1400000c04000097a0000028
:10170400ffff0000ffff0000ffff0000ffff0000dd
:10171400ffff0000ffff0000ffff0000ffff0000cd
:10172400ffff0000ffff0000ffff0000ffff0000bd
:10173400ffff0000ffff0000ffff0000ffff0000ad
:10174400ffff0000ffff0000ffff0000ffff00009d
:10175400ffff0000ffff0000ffff0000ffff00008d
:10176400ffff0000ffff0000ffff0000ffff00007d
:10177400ffff0000ffff0000ffff0000ffff00006d
:10178400ffff0000ffff0000ffff0000ffff00005d
:10179400ffff0000ffff0000ffff0000ffff00004d
:1017a400ffff0000ffff0000ffff0000ffff00003d
:1017b400ffff0000ffff0000ffff0000ffff00002d
:1017c400ffff0000ffff0000ffff0000ffff00001d
:1017d400ffff0000ffff0000ffff0000ffff00000d
:1017e400ffff0000ffff0000ffff0000ffff0000fd
:1017f400ffff0000ffff0000ffff0000ffff0000ed
:10180400ffff0000ffc10000838b0000939b0000da
:10181400a3a60000a4a70000948c000084960000f6
:10182400c9d90000e1880000859a0000a298000050
:10183400c0ff0000ff000000222a00003a3c000024
:101844003e3f00007c7f0000002b00002c3b00008a
:101854003d5b00005d00000001030000050700007f
:10186400090e00001012000014160000181c0000dd
:101874001e800000818200008384000085860000b1
:1018840087880000898a00008b8c00008d8e000000
:101894008f900000919200009394000095960000b0
:1018a40097980000999a00009b9c00009d9e000060
:1018b4009f800000818200008384000085860000f0
:1018c40087880000898a00008b8c00008d8e0000c0
:1018d4008fb00000b1b20000b3b40000b5b6000090
:1018e400b7b80000b9ba0000bbbc0000bdbe000020
:1018f400bfc00000c1c20000c3c40000c5c60000d0
:10190400c7c80000c9ca0000cbcc0000cdce00007f
:10191400cfd00000d1d20000d3d40000d5d600002f
:10192400d7d80000d9da0000dbdc0000ddde0000df
:10193400df90000091920000939d000095960000b6
:1019440097980000999a00009b9c00009d9e0000bf
:101954009ff00000f0f20000f2f40000f4f6000042
:10196400f6f80000f9fa0000fbfc0000fdfe0000a0
:04197400ff00000070
:020000040000fa
:10197800a0b580004900dd004f00de000000060031
:1019880001f02000a04180008080600010c3b300f7
:101998001e00320001f02000a0418000808060001d
:1019a80000402000808f500008003a00010f2000fe
:1019b800a04180008080600000c3b300f08f500019
:1019c80012003a006a4040000000060001f02000c2
:1019d800a04180008080600000502000808f50006f
:1019e80003003a00806a21001040780000000600d9
:1019f800a24180001210b10040c3b300e12f2000c3
:101a0800810f510001003e0000c0e90000000600ff
:101a18008040780060c0b300726a210092cf100045
:101a280007003a0001f02000a0418000808060009b
:101a380030c0b300020032003428ef000040eb0051
:101a4800000006008040780060c0b300726a210080
:101a580092cf100007003a0030c0b30001412000c7
:101a6800a2418000810f510002003a003428ec00a6
:101a78000040eb00000006008040780060c0b30022
:101a8800726a210092cf100009003a0030c0b300fa
:101a980001402000a2418000810f510004003a005b
:101aa8009404a90000412000a04188000040eb00f8
:101ab80000000600b0418000900090000160a10085
:101ac80011009800b0418000900090000150a100e2
:101ad800110098003e48ed003ee8b70003003200d0
:101ae80000ff2f003428b600000006003f48ed0034
:101af8003fe8b7000300320000112000a041880031
:101b08000000060071c0b300806a21000148780017
:101b180000502000a041880000000600ea87470026
:101b2800889fbe008a9fbe008c9fbe008e1f7800d3
:101b380000467800814678000247780083057800df
:101b48007a418000696f21000004eb004340dd000a
:101b580066004000616f2100610078000018a30052
:101b6800370032004340dd00660040006100780025
:101b78000058a30002003a00994f160030003a00be
:101b88004340dd0066004000616f2100610078007d
:101b98000048a30003003a00194090008d4f500000
:101ba80027003a004340dd0066004000616f2100d5
:101bb800610078000038a30003003a002940900033
:101bc8008e4f50001e003a000a4890000080fb002b
:101bd8009a489000c808dd0080807000d1b79f0047
:101be800aa4890008180fb003a4890004800dd0038
:101bf80000807000e0b79f00ecef9f00fdef9f00b2
:101c08008ef79f0084002000050020007681570091
:101c18009107200000c0eb00ee3407000004e0004c
:101c280007003a004344dd00a06f21000000440093
:101c380010409000804d780010c0b30005003700b8
:101c48000804e800e8844400e20f5400bfff3a00ab
:101c58000040eb004f0778004f06be004f05be005e
:101c68004f04be00af00b100000006000800fa00f3
:101c7800889fbe008a9fbe0079418000406b21008a
:101c88001060a1001070a100786f21008805e8009d
:101c98000005eb004350dd0066004000616f210045
:101ca800610078000018a3000d003200f8f89700d2
:101cb8004940900080cf500052003a0059409000af
:101cc800984f10004f003a00694090009b4f100059
:101cd8004c003a00406b21001060a000490037001a
:101ce80008007800094990000281fb00994890009b
:101cf800c808dd00810071000801e900928f10001a
:101d08001e003a00294990000281fb00b948900062
:101d1800c808dd00810071009b8f100017003a0091
:101d2800c350dd00e6804000626f2100e280780049
:101d38000178a3000f003200416b21001170a00050
:101d4800ea8050004841900082487800c350dd0086
:101d5800e6804000626f2100e28078000128a3003d
:101d680006003200416a210038419000824878001c
:101d780002003700416b21001160a0008000e900db
:101d88000081eb00910f11001e003a009b0f11001b
:101d98001c003a00094990000281fb009949900013
:101da800c819dd008281710083bf9f002949900016
:101db8000281fb00b9499000c819dd0003017100d8
:101dc80092bf9f0070f99700c2f79f0010407800fb
:101dd800d0f79f009b407800e1f79f008400200027
:101de80005002000708157009107200000c0eb001b
:101df800783407000004e00002003a00406b21003c
:101e08001060a000a0b580000068a3001200320096
:101e1800c350dd00606f210081014000926a2100fb
:101e2800d341900003497800e6804000e0807800c4
:101e380010c0b3000128a3000d003200c350dd001c
:101e4800e4804000626f2100406a210062c8780087
:101e580010c0b300060037000a05e8006804440013
:101e6800e8854500e20f55008aff3a000040eb0084
:101e78004f05be004f04be000080fa0000000600b7
:101e8800804078000104e00002003a0090b580002c
:101e98000000060083b580000000eb000300e000ae
:101ea80014003200230090000000e0000d00320012
:101eb800200090000000e0000a0032002059900045
:101ec800814f510004003a0000000600205990009c
:101ed800814f510007003200100078000000e00038
:101ee800faff3a00930178000300e000edff3a00a2
:101ef8000000eb0000000600889fbe008204780006
:101f080003047800726a2100924f10000600320024
:101f180060c0b300804c7800000ceb0038147800e7
:101f280010c0b3002200370001407800d4ff07003a
:101f38000000e0001b00320090009000c908de009d
:101f4800e1c06000100190000288a3000500320083
:101f5800804ceb000009900090099000028cbe00b4
:101f68000e003700100190000258a3000300320051
:101f780010c1b300804c78000800370010019000b1
:101f88000268a3000300320040589000804c78009b
:101f98000200370090c1b300804c780001407800ff
:101fa8000300370040c1b300804c780010c0b30074
:101fb8004f04be0000000600726a2100924f100014
:101fc8000a003a0001407800adff07000000e00079
:101fd80006003200900090000170a00011009800e7
:101fe800900090000190a0001100980000000600e9
:101ff800889fbe00820478000304780062c0b300a2
:10200800736a2100934f10000d003a0001407800d8
:102018009bff070042c1b3000000e0000800320047
:10202800e1846400cd48dd009004900009d0a1004f
:102038008984700019009800081098000041eb008e
:10204800024078004f04be000000060062c0b300e2
:10205800736a2100934f10000c003a000140780089
:1020680087ff070042c1b3000000e000070032000c
:10207800900090000150a10011009800900090007d
:102088000160a100110098000041eb0002407800b7
:102098000000060091b580000082fb005109900005
:1020a8004811de0063016100840f510006003a0008
:1020b800110190000298a30003003a00b141880082
:1020c80011c0b3003c0037003b68ef0083b58000c7
:1020d8008040eb000300e00037003200230190004d
:1020e8008000eb000200e00001003200a200900036
:1020f8000100e00022003200510990004811de0082
:1021080063016100820f52001a003a000004e000e7
:1021180003003200e34f500016003a000600370073
:10212800110190000298a30012003a00b141880002
:1021380011c0b30020003700110190000298a300dd
:1021480006003200310190000200e00009003a0068
:1021580021019000b200980006003700310190007c
:102168000200e00003003a00b141880011c0b3004a
:1021780011003700910078000100e00009003a00e2
:10218800930178000300e0000a0032002301900068
:102198008000eb000200e000d5ff3200a2009000b2
:1021a800d3ff37000300e000d1ff3a008040eb0086
:1021b800010037008040eb00014078000000060075
:1021c800889fbe008a1f78008ab580000a00e00058
:1021d800280032001a05780080b580009000900031
:1021e8000100e0001f0032009104780080b58000f3
:1021f80090009000210090000000e0000e003200e6
:1022080010047800d4f9070080b580001000900011
:102218008000eb002100980080b58000100090003d
:102228002800980080b58000900090002100900060
:102238000000e000f2ff3a0001007800c6f907004c
:102248008000eb0080b580001100980080b5800008
:102258001900980080b58000900090000100e0000f
:10226800e1ff3a00bcf907008ab588000a00e000df
:10227800d8ff3a0090b58000b04188004f0578003b
:102288004f04be0000000600889fbe0070b58000a5
:102298000000e00002003a000c0037000900780056
:1022a8009004900010007800abf9070070b580002a
:1022b8000008eb00e86a210018007800a6f907007a
:1022c800090c78000900e000f4ff3a007041800032
:1022d8000000e000020032009ff907002e28ef00fe
:1022e800e04180000000e000020032009af9070097
:1022f8003c28ef00b2ff07004f04be0000000600b4
:1023080090b580000000e00009003a00200220009b
:1023180008f907008000780091b588000040eb00bc
:102328000100e000130032008008eb0001003700d4
:10233800d5ff070090b58000b04188003428ef0031
:1023480030a8ef000040eb00616a21008048780067
:102358008100e800804878004008a800400020007c
:10236800b0b58800c0b58800a06b21000008eb005c
:1023780010c0b30000000600900290000550a100b4
:1023880015009800900290000560a10015009800c3
:10239800900290000570a10015009800900290002e
:1023a8000580a100150098001003900005fe2f007d
:1023b80085026300150098009002900005c0a100f6
:1023c80015009800330898006033b8000608980094
:1023d800170898008002eb005400980065009800e8
:1023e8008001eb007308980021089800720098009b
:1023f80001c2b30001589800900090000190a1001c
:102408001100980000000600900290000550a100fd
:1024180015009800900290000560a1001500980032
:10242800900290000570a10015009800900290009d
:102438000580a100150098001003900005fe2f00ec
:1024480085026300150098009002900005c0a10065
:1024580015009800330898006033b8000608980003
:10246800170898006123b800560098006700980084
:102478008001eb007308980021089800720098000a
:102488000400e00003003a0001c1b30001589800bd
:102498000200370001c3b300015898009000900073
:1024a8000190a10011009800000006009001900022
:1024b8000370a10013009800900190000380a10010
:1024c800130098001002900003fe2f0083016200a1
:1024d800130098009001900003c0a1001300980019
:1024e800310898006022b800040898001508980080
:1024f8008001eb0052009800630098000001eb0097
:1025080072089800d0099000023020008281610092
:10251800828f510003003a0001c4b30001589800ab
:102528000a00370002102000828f510005003a008f
:1025380002c6b300025898000041eb009240980090
:102548000200370001c8b3000158980090009000bd
:102558000190a1001100980000000600889fbe00ad
:102568008a1f7800020578000404be0062c0b30028
:10257800736a2100934f100026003a0003f02000f0
:10258800a04180008081610012c0b300004020009b
:10259800808f51001f003a000140780038fe070084
:1025a8008001780042c1b3000300e0001900320046
:1025b800530890000030b20082c1b3001500320009
:1025c8002358900052c1b3000004e00011003d0000
:1025d8001300900012c1b3000058a3000d003a0088
:1025e8001300900022c1b3000068a30009003a005c
:1025f8001300900002c1b3000098a3000500320048
:10260800080178008a00780003007800a7ff070017
:102618000041eb00024078004f0578004f04be00ef
:1026280000000600900190000370a10013009800bc
:10263800900190000380a100130098001002900000
:1026480003fe2f00830162001300980090019000a0
:1026580003c0a10013009800310898006022b80058
:1026680004089800150898008001eb0052009800b3
:10267800630098000001eb0072089800d0099000f0
:102688000230200082816100828f510003003a00ed
:1026980001c5b300015898000a0037000210200055
:1026a800828f510005003a0002c7b3000258980013
:1026b8000041eb00924098000200370001c9b300c6
:1026c80001589800900090000190a1001100980016
:1026d80000000600889fbe008a1f78000205780067
:1026e8000404be0062c0b300736a2100934f100057
:1026f80026003a0003f02000a0418000808161009c
:1027080012c0b30000402000808f51001f003a0023
:1027180001407800dafd07008001780042c1b3006b
:102728000300e00019003200530890000030b200a6
:1027380082c1b300150032002358900052c1b30083
:102748000004e000110035001300900012c1b3002e
:102758000058a3000d003a001300900022c1b300f6
:102768000068a30009003a001300900002c1b300fa
:102778000098a30005003200080178008a0078005c
:1027880003007800a7ff07000041eb000240780033
:102798004f0578004f04be0000000600889fbe0069
:1027a8008a9fbe008c1f780000467800810478005c
:1027b8000205be0020072000808f5400030032006d
:1027c800f0ff2700808f54000e003a001a4890004e
:1027d800e14f40002a003200a2c0b3000440bc0010
:1027e8000280e800c16e2100e1017800615ab8005a
:1027f8000a017800890078000c4078000300010085
:102808001f00370088b580000800e0000e00320085
:1028180078409000a2c0b3000440bc000281e800e8
:10282800c06e2100e0017900615ab8000a01780001
:10283800890078000c407800030001001804780033
:102848000800e000f2ff3a00a0b580000078a3007d
:102858000b003200a06a21001080fb006a00b9005a
:102868000080e800c16e2100e1017800615ab800db
:102878000a017800890078000c4078000300010004
:102888004f0678004f05be004f04be00000006004a
:102898000200fa008824ef00706a210010407800d6
:1028a8000004e0000f0032008040eb00e1ff9f00d1
:1028b80061b58000f1ff9f00240020000500200082
:1028c8000f81e900a1062000c2310700706a2100cb
:1028d8001300200000017800110720001040780044
:1028e800aeff07006000b80085fe07000080fa0010
:1028f8000000060033c0b300e1cf40000f003a00eb
:102908000204e0000d003a0081062000810f50000b
:1029180004003a00deff07004008a9008041eb00f0
:102928000600370033c0b300b1062000810f500005
:1029380002003a004008a8008041eb0003407800fc
:1029480000000600889fbe008a9fbe008c1f78008a
:102958008044780001057800820578000306780035
:1029680088b580000800e000100032007840900030
:10297800a2c0b3000440bc0064014100c06e210045
:10298800e00179000300e000050032006162b80050
:102998000b0178008a0078000940780003000100e4
:1029a800180478000800e000f0ff3a004f067800ad
:1029b8004f05be004f04be0000000600f087470028
:1029c800889fbe008a9fbe008c9fbe008e1f780025
:1029d80089b58000406b21001010a1001020a000d4
:1029e80060418000b04578000000e800304478007d
:1029f800304578000000e800b040780081ef9f0083
:102a08002040900090ef9f00e0e79f007c815700f6
:102a18000069eb002400200005002000910620003a
:102a280000c0eb006b3107000004e00005003a002d
:102a380081c2b300806a21000148780011c0b30048
:102a4800dd0037000884fb004856dd000806460014
:102a58000b85fb00604180008040eb008a0f560028
:102a6800d50036000a01400081467800020078004f
:102a780030477800b0407800e9cf500010003a00a5
:102a8800416b21001110a00010407800ef80500029
:102a9800804878000018a30006003200a0b5800026
:102aa8000038a300030032006f8040001020a1000e
:102ab80005003700406b21001030a10002003700ec
:102ac800e4cf5000060032000e87fb000e054500db
:102ad8000a0078002c08b40000017800b100370023
:102ae80090457800d0407800a1ef9f000001780061
:102af800d241780083f79f0052407800d240780096
:102b0800f2b79f000202780054417800f4b79f00a2
:102b1800a3b580000368a30004003200906a210076
:102b280010407800c0e79f000a003700fc8157007a
:102b3800fafb07000004e00006003a000e87fb00dd
:102b48000e0545000a0078002c08b4000001780042
:102b5800940037000900e0000b0032006940900043
:102b68008b4f5000c3003200090478001804780025
:102b78000800e00004003200684090008b4f5000cd
:102b8800faff3a000d00370080002000e9f6070040
:102b9800000478000800e0000d0032006b44980043
:102ba800cfe09700714498000000eb0010049800f3
:102bb80020049800090c7800880478006000200040
:102bc800dcf60700e0b79f000000e000ab003a0029
:102bd800ffb197000301e80011c0b3006c00370093
:102be8006fb29700240498000e87fb000e0545007d
:102bf8006b4180000a814500040037000e87fb0006
:102c08000e0545006b4180000a8145008a0f560079
:102c18005b0036008ff297000504e000a200320046
:102c28008046eb00124478000200780051c0b300df
:102c3800d0cf1000040032000884fb0008054500ce
:102c48000a8145004700370000077800200220006d
:102c5800b8f607008000780001f0a7008100ea00bc
:102c68008100e900cf08de005e4178002258980014
:102c78000e017800d241780033589800d281fb00c9
:102c8800430098005282fb004822dd008301420085
:102c980043009800924190008381fb002300980034
:102ca8000001eb00120098001002900004a0a000a0
:102cb80014009800100290000490a00014009800de
:102cc8006022b80004089800150898000258980077
:102cd800cfe2970015589800500a90000430b200cf
:102ce80002102000820f520011003a000300e00099
:102cf80003003a0012002000220098000400370068
:102d0800f08f5100020036000201200022009800d6
:102d1800200190000201e900130020000219dd00e3
:102d2800220098001001900002a0a1001200980053
:102d38002001900032009800efb19700a3019000a5
:102d4800030878006fb29700200298008d46e800cb
:102d58000884fb00080545000a8145000104e000dd
:102d68000b003a008a0f5600080036008ff29700d1
:102d78008dcf5200abff3e008040eb0004003700cf
:102d88008046eb008d407800010037008040eb0062
:102d98000ff0970080cf560006003a000104e000cb
:102da80005003a008c0f550030ff39008040eb00d9
:102db8000100370011c0b3000040eb000900e0003b
:102dc800260032000104e0001c0032000100370038
:102dd8008a04780019057800190490000800e000ba
:102de80010003200980078009104980028009000a4
:102df8000000e0000600320010017800220498006c
:102e0800d5f60700280090000000e000faff3a001d
:102e180008007800d0f60700190490000800e000c8
:102e2800f0ff3a0009007800cbf607000a00e0003e
:102e3800e7ff3a000040eb0008003700406a210035
:102e48008fe99700034878001fea97000480fb0089
:102e580060b5880089b5880010c0b3004f077800b6
:102e68004f06be004f05be004f04be000f01b10063
:102e7800000006000904780050ff37001800900091
:102e8800efb29700800a7800afe89700a142980057
:102e98000000eb00a0029800150498000104e0006f
:102ea8004fff320055ff37008046eb00bdff37006b
:102eb8000200fa00889fbe008a9fbe00d0b580003d
:102ec8000000e00024003200c0b58000c26b210081
:102ed800e20f500004003c000001e8006c11b9004a
:102ee800c16b2100010141009200780020072000f9
:102ef800808f500003003200f0ff2700808f5000c1
:102f080005003a000281e800a3002000706a210051
:102f18001040780021fe0700622480008c24ef0016
:102f2800a16b21001100e90080087800c1b580007c
:102f3800e28f500003003c00836b21008109e80008
:102f480002003700816b21008008eb0062248800b2
:102f58000000e000dcff3a0080418000e10f400003
:102f6800030032003008f8003408f90030a8ef00f8
:102f780000f020003408b60001202000810f500026
:102f8800a801320006003e000000e0000e003200fa
:102f980001102000810f50000a043a008b0037000e
:102fa80001402000810f5000b30332000110b0002f
:102fb800810f5000d003320001302000810f5000f3
:102fc80000043a00d0013700000f20003408b60092
:102fd800f00f50005600320001022000810f50000f
:102fe8005a0032000000e000f6033a0028fe07000d
:102ff8008000eb0090b5800001087800206b21006c
:1030080010017800110198001001780092019000d9
:1030180003a0a0001301980010017800920190000d
:103028000390a0001301980010017800920190000d
:1030380003d0a0001301980010017800430120007c
:103048000311980003042000430198001001780040
:103058006022b8000409980015099800100078004b
:103068000041eb002158980002589800500a90003f
:10307800f3cf2f00830162005308980080c1eb0052
:103088001358980030c0b3003fe8b700406a2100e9
:10309800024878000000e800024878000000e800d4
:1030a80002487800a1b5880081b588003828ef006b
:1030b8008c24ef00f00f200050248800c108200065
:1030c80025482000958a6000ef8050000124880080
:1030d8009024ef0070248800008021004800de0062
:1030e800c024880080002000a0248800a1002000bf
:1030f800a1248800a0248800000320003024880030
:103108002000200030258800a824ef009624ef0036
:10311800aae4a900a00420000025880000ff2000e0
:103128003408b60070004000a0418800a5033700ad
:103138004008ab00a303320000ff20003408b600ab
:1031480070004000a04188009e0337000040eb005b
:10315800e0f79f0020c3b300f0f79f002400200091
:10316800050020006a8157009106200000c0eb008e
:10317800982f07000004e000100032001000200023
:10318800402488008ec0a900f18f2f0072068000ad
:1031980082806000006020000100700070068800d6
:1031a8009ec0a80000ff20003408b6007000400050
:1031b800a04188008cc4a800820337004008a900f9
:1031c80000012000a04188007e033700000f200086
:1031d8003408b60001022000810f50007c00320044
:1031e80005003e000000e0000a003200f00f500029
:1031f80074033a001c00370001032000810f5000bf
:10320800d0003200f0804000810f50006d033a007a
:10321800fe003700a04180006f006000030032000c
:10322800e20f500067033a000a0037001000200040
:10323800502488008c04a800b00f2000904188001a
:10324800000420000024880082c4a8003428ec0070
:103258005c03370000ff20003408b600700040000f
:10326800a041880057033700a04180006f0060002c
:10327800e20f500044003200e40f50004b003200cf
:103288000000e0004f033a00e04180000000e00049
:1032980001003200b0f507008000200025f5070086
:1032a800e04188000000e00006003a0031c3b300a6
:1032b800806a21000148780000502000a041880061
:1032c800400337000040eb00416a21008048780045
:1032d8008100e800804878006f8040000008eb001b
:1032e80030c0b3003ee8b700d00020005025880069
:1032f800ac24ef00ae24ef00b024ef00b224ef00be
:10330800b424ef00b624ef00b824ef00ba24ef008d
:10331800bc24ef00be24ef00c024ef00c224ef005d
:10332800c424ef00c624ef00c824ef0094e4ab00e7
:1033380008003a006f8040001000a00001c8b300e8
:103348006e0050000148780000082000b024880072
:10335800aae4a8009424a8009424a900406b2100a2
:103368001040a1001050a1009484a8003003200050
:10337800904188006d0040000024880082c4a800a5
:103388003428ec000f0337009484a9009404a800a3
:10339800b00020009041880000042000002488002c
:1033a80082c4a8003428ec0006033700f00020008f
:1033b80060248800f00f20008024880000ff20008f
:1033c8003408b60070004000a0418800fd023700b4
:1033d800a04180006f006000e10f50001e00320025
:1033e80003003900e20f5000f6023a002f003700c0
:1033f800704180000000e0000200320056f507002e
:103408002e28ef00e141800000c8b3008048780012
:1034180060c0b300904098000040eb00a0409800c6
:1034280012c0b300b2409800c0409800d040980045
:1034380082c0b300e2409800f04098008400200069
:10344800810178000401780090b58000cafb07006c
:103458003428ec00db02370090b580009000900023
:103468000198a300d7023200100090000088a30042
:103478000c003200e041800040409000e94f5000cd
:1034880006003a0051c3b300806a21000148780061
:1034980000502000a0418800ca0237003428ec0000
:1034a800c802370083f90700c6023700e8418000e8
:1034b8001880fb009ff40700704188000000e000be
:1034c80006003a0031c3b300806a21000148780041
:1034d80000502000a0418800ba0237001848780040
:1034e800f84090008180fb0090b580004100980072
:1034f8000800780018f5070090b58000400090009b
:103508008cf40700e04188000000e00006003a0063
:1035180031c3b300806a21000148780000502000c0
:10352800a0418800a702370030c0b3003ee8b700ca
:1035380000ff20003408b60070004000a041880059
:10354800a0023700a04180006f006000e10f50002a
:103558001c00320003003900e20f500099023a00c3
:10356800230037003888ab0096023a00e14180001a
:1035780000c8b3008048780060c0b300904098004d
:103588000040eb00a040980012c0b300b240980081
:10359800c0409800d04098007241800012417800e5
:1035a800e2409800f0409800734180001382fb00cd
:1035b8008200200090b580006ffb07003428ec00e3
:1035c8008002370090b58000900090000198a30019
:1035d8007c023200100090000088a3000200320034
:1035e8003428ec007702370032f9070075023700fb
:1035f80030c0b3003ee8b70000ff20003408b60032
:1036080070004000a04188006e02370097f907005b
:1036180000f020003408b6000010b000a041880077
:1036280068023700000f20003408b60065023a002f
:10363800a04180006f006000e10f50001a003200c6
:1036480003003900e20f50005e023a002100370003
:10365800726a210010c0b30000497800e14180007f
:103668000040eb008048780053c0b30093409800b6
:1036780012417800a2409800b0409800c0409800dd
:10368800d0409800e0409800f04098000002eb001d
:103698008001eb008200200090b580005afb0700f3
:1036a8003428ec004702370090b580009000900065
:1036b8000198a30043023200100090000088a30084
:1036c800020032003428ec003e023700f9f8070007
:1036d8003c023700a1b58000e1806000c708dd002a
:1036e800726a21000200e90012c8700030c0b300fd
:1036f8003ee8b70000f020003408b6000010b00023
:10370800a04188002f023700000f20003408b600bf
:1037180001022000810f50008e00320005003e009b
:103728000000e0000d003200f00f500025023a00c2
:103738002b00370001042000810f500046013200a1
:10374800f0804000810f5000510132000103200039
:10375800810f50001b023a00be0037007041800004
:1037680010559000148420000a4a780070b5800033
:103778000000e00002003a000c0037000900780061
:10378800900490001000780073f4070070b5800072
:103798000008eb00e86a2100180078006ef40700c2
:1037a800090c78000900e000f4ff3a000a04e00080
:1037b80006003a0091c3b300806a210001487800ee
:1037c80000502000a0418800fe01370000ff2000c3
:1037d8003408b60070004000a0418800f9013700a5
:1037e800a04180006f006000e10f50001a00320015
:1037f80003003900e20f5000f2013a0021003700bf
:10380800e141800000c8b3008048780060c0b30080
:10381800904098004148ed00a040980020c0b300b7
:10382800b04098000040eb00c0409800d04098009d
:1038380082c0b300e2409800f04098008400200065
:10384800810178000401780090b58000cafa070069
:103858003428ec00db01370090b580009000900020
:103868000198a300d7013200100090000088a3003f
:10387800020032003428ec00d20137008df807002e
:10388800d001370060002000aaf307000004780088
:103898000800e00006003a0031c3b300806a210046
:1038a8000148780000502000a0418800c501370079
:1038b800eb418000638545008b85e8009a80fb001a
:1038c800c808dd001b80fb000080400099f307005a
:1038d800000c78000000e00008003a0008007800ba
:1038e8001df4070031c3b300806a21000148780045
:1038f80000502000a0418800b20137001a81fb0067
:103908004811dd009b80fb008100410021409800a8
:10391800c808de0031409800e16a210011017800f2
:1039280012049800880878006041880014842000f8
:10393800144278004444980030c0b3003ee8b70011
:1039480000ff20003408b60070004000a041880045
:103958009c013700a04180006f006000e10f50001b
:103968002400320003003900e20f500095013a00ac
:103978002b003700e141800000c8b3008048780080
:1039880060c0b300904098004148ed00a040980006
:1039980020c0b300b04098000040eb00c040980041
:1039a800d040980070b5800010007800204090004a
:1039b800e040980070b5800010007800304090001a
:1039c800f040980070b58000900178002340900086
:1039d8000080fb00334290004822dd0004027000a2
:1039e8008200200090b5800063fa07003428ec00bc
:1039f8007401370090b58000900090000198a300f2
:103a080070013200100090000088a300020032000c
:103a18003428ec006b01370026f8070069013700ed
:103a280030c0b3003ee8b7004148ed0041e8b700b8
:103a38000300320000312000a041880061013700f6
:103a480000ff20003408b60070004000a041880044
:103a58005c013700a04180006f006000e10f50005a
:103a68004100320005003900e20f500060003200ca
:103a7800e30f500053013a0068003700d0f90700ff
:103a8800406a2100904078000104e00010003a00ec
:103a980070b58000104288000000e000230032006a
:103aa8001000780060418800c4fb07000004e000b3
:103ab8001e003a00c2f90700104280001000900072
:103ac800104288000000e000f5ff3a0017003700b8
:103ad80070b58000104288000000e0000c00320041
:103ae8004041900082cf5000090032001000900041
:103af8000000e00002003a0010428800040037008d
:103b08004041900082cf5000f8ff3a0010428800f0
:103b18001000780060418800a8fb07000004e0005e
:103b280002003a00a6f907004228ef00a0b580007d
:103b38000028a3000a0032004208e20006003a000a
:103b480041c3b300806a210001487800005020007a
:103b5800a04188001b0137003428ec001901370008
:103b68003428ec0017013700a0b580000028a30016
:103b78001a003a00406b21001020a000e1418000ab
:103b88008048eb0032c0b300924098001038a30080
:103b98000300320002407800a0409800020037007d
:103ba80040c0b300a04098000040eb00b04098002f
:103bb800c0409800d0409800e0409800f04098003d
:103bc8000002eb008001eb008200200090b580002d
:103bd8000dfa07003428ec00fa00370000ff200037
:103be8003408b60070004000a0418800f500370096
:103bf80090b58000900090000198a300f100320079
:103c0800100090000088a300020032003428ec0065
:103c1800ec003700a7f70700ea00370030c0b30010
:103c28003ee8b7004208e20006003a0041c3b3008c
:103c3800806a21000148780000502000a0418800d7
:103c4800e000370000ff20003408b6007000400094
:103c5800a0418800db003700706a21001082fb0059
:103c68008002eb000001eb00c107200000c0eb0060
:103c7800d82c07000004e000d2003a0000ff200022
:103c88003408b60070004000a0418800cd0037001d
:103c9800a04180006f006000e10f50001a00320060
:103ca80005003900e20f500022003200e30f5000f7
:103cb800c4003a0023003700e14180000040eb00d7
:103cc8008048780092c0b30092409800426a210070
:103cd80012417800a2409800b0409800c040980077
:103ce800d0409800e0409800f04098000002eb00b7
:103cf8008001eb008200200090b58000c2f9070027
:103d08003428ec00af00370090b580009000900098
:103d18000198a300ab003200100090000088a300b7
:103d2800020032003428ec00a600370061f70700d3
:103d3800a400370030c0b3003ee8b7003428ec00d8
:103d4800a000370000f020003408b6000010b000d2
:103d5800a0418800a0b580000068a30015003200cb
:103d6800906a21009040780001407800a2c0b3001a
:103d78000440bc00c36e2100028041006302790048
:103d880030019000c0019000706a21001040780056
:103d9800040001000004e0001f003a0091c3b300d2
:103da800806a21000148780000502000a041880066
:103db8001900370088b580000800e00016003200be
:103dc800f840900001407800a2c0b3000440bc0055
:103dd800c36e210002804100630279003001900027
:103de800c0019000706a21001040780004000100b2
:103df8000004e00005003a0091c3b300806a210086
:103e08000148780000502000a0418800180478007c
:103e18000800e000eaff3a00a0b580000078a3009f
:103e280068003200a06a21009040780001407800c4
:103e3800a2c0b3000440bc00c36e21000280410050
:103e48006302790030019000c0019000706a21007f
:103e580010407800040001000004e00059003a0016
:103e680091c3b300806a2100014878000050200007
:103e7800a041880053003700000f20003408b60026
:103e8800f00f50004f003a00a04180006f00600022
:103e9800e30f50000c003200e50f50001300320011
:103ea800e10f500047003a009444a8005001200058
:103eb80090418800000420000024880082c4a800e3
:103ec8003428ec003f0037009444a9009404a8006b
:103ed800b0002000904188000004200000248800e1
:103ee80082c4a8003428ec003600370000402000c7
:103ef800a041880033003700000f20003408b600c6
:103f080030003a0080002000a02488008c24ef00b4
:103f1800f00f200050248800c1082000224820000b
:103f280012896000ef805000012488009024ef007f
:103f3800702488008c04a800806a21001040780052
:103f4800f1c0500042c3b300824f5000120032004b
:103f580008003e00d1c6b300e74f50000e00320003
:103f680081c0e8000241e900824f500009003a0090
:103f78000900370051c6b30052c3b300824f500046
:103f880005003200e9c0400064414100824f500002
:103f98000100320001c7b3008180fb00140020003b
:103fa80005002000c26a2100650051001040780019
:103fb800082c070000ff20003408b60070004000fd
:103fc800a04188004f05be004f04be000080fa00e3
:103fd800000006000004e00016003a0083b58000e7
:103fe8000300e00019003200130190000200e00015
:103ff8000c003200220090000000e00006003200b1
:104008009000900001b0a100110098001000780005
:104018000000e000faff3a00120178000200e00018
:10402800f4ff3a00930178000300e000eeff3a0045
:104038000000060092f707000000e00003003200cd
:104048009000900001b0a100110098000000060047
:104058008f87e800889fbe008a9fbe008c9fbe00a5
:104068008e1f780081467800024678008304780025
:10407800040478000505780086057800074778006d
:1040880061c0b300726a2100924f100066003a00c6
:1040980002f02000a04180000001610011c0b300bf
:1040a80000402000800f51005f003a0090b580006a
:1040b8001000900001c1b3000098a3005a0032001c
:1040c800eb4f56002e003a0080b5800031c0b30097
:1040d8000000e00054003200e04090008180fb00c6
:1040e800888f500057003200100078000000e00070
:1040f80048003200e04090008180fb00888f50002b
:10410800f9ff3a004f003700220190000200e0005a
:104118000b0032009201900031c0b3000398a30055
:1041280004003a0040003700920090000198a30074
:104138003a003200120178000200e000faff3a006b
:104148001001900031c0b3000200e00036003200d8
:10415800a24090008180fb00898f50003e00320011
:10416800120178000200e0002e003200a240900008
:104178008180fb00898f5000f9ff3a003600370034
:10418800e14f560006003a000900e00004003a003a
:10419800e2cf560002003e00084078008dff07007d
:1041a800e14180008d4878009c409800a940980023
:1041b800c84cde00b9409800c84098004844de006a
:1041c800d8409800ea4098004850de00f040980037
:1041d80090b580002fe99700125898000e04e0006f
:1041e80006003a000a0278008b017800820020005d
:1041f80085f807008040eb000b0037000a027800c2
:104208008b017800820020005bf807008040eb00fb
:104218000500370031c0b3000300370031c0b300d8
:104228000100370031c0b300014078004f07780023
:104238004f06be004f05be004f04be002f00b10060
:10424800000006002001900031c0b3000200e00029
:10425800adff3a00f4ff370022009800d0ff370086
:10426800a3b58000d2cdb3000308a30001003a0033
:10427800d2c5b300b3418000530a90000430b200a5
:1042880001003a000244a100530a90000430b20031
:1042980003102000830f520001003a000204a1001d
:1042a8000281fb0052258800626a21001281fb000e
:1042b800b22488008180fb00c408dd00f007b2004a
:1042c80001007000f02488003888a800000006006b
:1042d800889fbe00e94f50000f003a00a2b5800049
:1042e800418021000248a30001003a00e480500008
:1042f800426b210092017800c419de008381ea0034
:10430800e1816100c419dd00120278000440a100b7
:104318000309720023003700a2b58000c180210084
:104328000258a30001003a00e4805000426b2100cb
:1043380092017800c519de008381ea00e1816100fd
:10434800c519dd00120278000450a10003097200ab
:10435800ed4f500013003a00b24180007203900004
:10436800020c9000920c9000420290008003eb0037
:104378000803530089835b008002eb00840f53001d
:10438800858f5b000200360042009000260037004f
:1043980072009000020a9000920a900004005000f7
:1043a80021003700b2418000520a90000430b20068
:1043b80003102000830f520008003a00e94f500014
:1043c80002003a004200900041003700020a9000c3
:1043d800920a9000040078003d00370052049000d3
:1043e800e2049000020b9000920b900042029000b1
:1043f8000603540087835c008002eb00840f53009f
:10440800858f5b00020036004200900030003700c4
:1044180052039000e2039000020a9000920a900072
:10442800040053002a0037002209900092009800e7
:104438000e003700320a90003209900012419000b5
:104448000281fb000201e8006611b90064027900ec
:104458009400980005003700320a900092099000f5
:104468000209900002014200920098000041eb000e
:1044780092409800f03fb20002c02f001101610085
:104488000200700080087800b2418000920190001c
:10449800cb19de00e1816100ce19dd0000e0a1004a
:1044a8000080710080087800120190004a11de0037
:1044b800610161004b11dd0000b0a1000000710036
:1044c80000f0a000800878004f04be00000006003d
:1044d800520a90000430b20003102000830f5200eb
:1044e800ddff3a00d3ff3700881f7800a041800025
:1044f8003888ab00f4023a000044eb003808ab00ff
:10450800d8013a0008407800e2f607000004e0000d
:10451800d3013200b041800080589000010fb200f2
:1045280002022000828f5000940032007001410086
:10453800828f50002a013200f08f5000c1013a00ea
:1045480080589000ef806000e18f50001400320026
:1045580003003c000100e00006003200b90137000a
:10456800e28f50001e003200ef8f5000b5013a0074
:104578004f0037009000900001b0a1001100980092
:10458800d0c0b30052ff0700b0418000205890000f
:10459800d1c0b30032ff07003808a800ca023700ac
:1045a800000990009009900052009800630098005c
:1045b800b04180009000900001b0a0001100980068
:1045c80090c0b30042ff0700b0418000205890001f
:1045d80091c0b30022ff07003808a800ba023700cc
:1045e8008040eb0001589800b04180009000900096
:1045f8000190a00011009800d0b58000e30f500092
:1046080027003c00a16b21008008e800b0b58000bd
:10461800e20f500003003c00e48050008008e800ee
:1046280002003700606b21000008eb00626b21007c
:10463800920178006c18b9008000780001024100ee
:104648002007200030029800b0418000000b900045
:10465800900b900046029800570298008301e800ea
:104668006c1ab900b00b900007317a006e01410056
:10467800010141008041eb0013419800a0599000ce
:1046880003497800626c210081004100305a900093
:1046980084487800105890009040980088023700ad
:1046a80081c0b300b04180003158980084023700bf
:1046b8008040eb0001589800b041800090009000c5
:1046c8000190a00011009800d0b58000e30f5000c1
:1046d80026003c00a16b21008008e800b0b58000ee
:1046e800e20f500003003c00e48050008008e8001e
:1046f80002003700606b21000008eb00606b2100ae
:10470800100178006c12b900840078008101400023
:10471800f4ff2700b40198006033b800c601980080
:10472800d70198000201e8006c11b90002004000ae
:104738000008eb00b0418000426c210001014100fb
:10474800c05b900017419800a05990000349780079
:10475800626c210081004100305a90008448780042
:1047680010589000904098005502370081c0b3005f
:10477800b0418000315898005102370080589000ad
:10478800ef806000e28f50001e00320005003c0000
:104798000100e00008003200e18f500029013a00d2
:1047a80010003700e38f500026003200ef8f5000d2
:1047b80024013a00570037009000900001b0a10092
:1047c80011009800d0c0b300c1fe0700b0418000be
:1047d80020589000d1c0b300a1fe07003808a800f7
:1047e8003902370090c0b300b9fe0700b04180001d
:1047f8002058900091c0b30099fe07003808a8001f
:1048080031023700000b9000900b90005600980082
:1048180067009800b04180009000900001b0a000af
:104828001100980010c0b300a9fe0700b041800035
:104838002058900011c0b30089fe07003808a8006e
:10484800210237008040eb0001589800b0418000f9
:10485800900090000190a00011009800d0b5800051
:10486800e30f500027003c00a16b21008008e800fe
:10487800b0b58000e20f500003003c00e480500017
:104888008008e80002003700606b21000008eb0098
:10489800626b2100920178006c18b90080007800e2
:1048a800010241002007200030029800b04180003a
:1048b800000b9000900b9000460298005702980059
:1048c8008301e8006c1ab900b00b900007317a0038
:1048d8006e014100010141008041eb001341980045
:1048e800a059900003497800626c210081004100c2
:1048f800305a9000844878001058900090409800f2
:10490800ef01370081c0b300b041800031589800f2
:10491800eb0137008040eb0001589800b04180005f
:10492800900090000190a00011009800d0b5800080
:10493800e30f500026003c00a16b21008008e8002e
:10494800b0b58000e20f500003003c00e480500046
:104958008008e80002003700606b21000008eb00c7
:10496800606b2100100178006c12b9008400780097
:1049780081014000f4ff2700b40198006033b800bb
:10498800c6019800d70198000201e8006c11b9002f
:10499800020040000008eb00b0418000426c21009a
:1049a80001014100c05b900017419800a059900098
:1049b80003497800626c210081004100305a900060
:1049c800844878001058900090409800bc01370047
:1049d80081c0b300b041800031589800b801370059
:1049e80080589000ef806000e28f50001e00320077
:1049f80005003c000100e00008003200e18f500093
:104a080090003a0010003700e38f50002600320073
:104a1800ef8f50008b003a0057003700900090004d
:104a280001b0a10011009800d0c0b30028fe070013
:104a3800b041800020589000d1c0b30008fe0700a4
:104a48003808a800a001370010c0b30020fe0700f6
:104a5800b04180002058900011c0b30000fe07004c
:104a68003808a80098013700000b9000900b9000c0
:104a78005600980067009800b041800090009000b0
:104a880001b0a0001100980090c0b30010fe07000c
:104a9800b04180002058900091c0b300f0fd07009d
:104aa8003808a800880137008040eb0001589800ba
:104ab800b0418000900090000190a0001100980083
:104ac800d0b58000e30f500027003c00a16b210007
:104ad8008008e800b0b58000e20f500003003c00f9
:104ae800e48050008008e80002003700606b210075
:104af8000008eb00626b2100920178006c18b90085
:104b08008000780001024100200720003002980050
:104b1800b0418000000b9000900b90004602980076
:104b2800570298008301e8006c1ab900b00b900096
:104b380007317a006e014100010141008041eb001c
:104b480013419800a059900003497800626c210035
:104b580081004100305a9000844878001058900035
:104b6800904098005601370081c0b300b0418000e2
:104b780031589800520137008040eb0001589800e6
:104b8800b0418000900090000190a00011009800b2
:104b9800d0b58000e30f500026003c00a16b210037
:104ba8008008e800b0b58000e20f500003003c0028
:104bb800e48050008008e80002003700606b2100a4
:104bc8000008eb00606b2100100178006c12b9003e
:104bd8008400780081014000f4ff2700b4019800a8
:104be8006033b800c6019800d70198000201e800b8
:104bf8006c11b900020040000008eb00b0418000d1
:104c0800426c210001014100c05b900017419800ef
:104c1800a059900003497800626c2100810041008e
:104c2800305a9000844878001058900090409800be
:104c38002301370081c0b300b0418000315898008b
:104c48001f0137008040eb0001589800b0418000f8
:104c5800900090000190a0001100980018c0b300c7
:104c68003808a8003828ab000f01320016013700b9
:104c7800b041800080589000010fb200020420006b
:104c8800828f50000400320070014100828f500072
:104c9800f5003a007a00370080589000ef806000f5
:104ca800e18f50000b003200ef8f50003f003200c0
:104cb8000100e000ee003a0090c0b30084fd070058
:104cc800b04180002058900091c0b30064fd0700f7
:104cd800fd0037008040eb0001589800b04180008b
:104ce800a002900035009800900090000190a0006c
:104cf80011009800d0b58000e30f500027003c0059
:104d0800a16b21008008e800b0b58000e20f5000d8
:104d180003003c00e48050008008e80002003700ef
:104d2800606b21000008eb00626b210092017800a3
:104d38006c18b900800078000102410020072000ab
:104d480030029800b0418000000b9000900b90005a
:104d580046029800570298008301e8006c1ab900cf
:104d6800b00b900007317a006e014100010141004b
:104d78008041eb0013419800a05990000349780046
:104d8800626c210081004100305a9000844878000c
:104d98001058900090409800b800370081c0b300c8
:104da800b041800031589800b40037008040eb00d3
:104db80001589800b0418000a0029000350098008a
:104dc800900090000190a00011009800d0b58000dc
:104dd800e30f500026003c00a16b21008008e8008a
:104de800b0b58000e20f500003003c00e4805000a2
:104df8008008e80002003700606b21000008eb0023
:104e0800606b2100100178006c12b90084007800f2
:104e180081014000f4ff2700b40198006033b80016
:104e2800c6019800d70198000201e8006c11b9008a
:104e3800020040000008eb00b0418000426c2100f5
:104e480001014100c05b900017419800a0599000f3
:104e580003497800626c210081004100305a9000bb
:104e680084487800105890009040980083003700dc
:104e780081c0b300b0418000315898007f003700ee
:104e880080589000ef806000e18f50000b003200e6
:104e9800ef8f50003f0032000100e00076003a003a
:104ea80010c0b3000afd0700b041800020589000f0
:104eb80011c0b300eafc0700830037008040eb0014
:104ec80001589800b0418000a00290003500980079
:104ed800900090000190a00011009800d0b58000cb
:104ee800e30f500027003c00a16b21008008e80078
:104ef800b0b58000e20f500003003c00e480500091
:104f08008008e80002003700606b21000008eb0011
:104f1800626b2100920178006c18b900800078005b
:104f2800010241002007200030029800b0418000b3
:104f3800000b9000900b90004602980057029800d2
:104f48008301e8006c1ab900b00b900007317a00b1
:104f58006e014100010141008041eb0013419800be
:104f6800a059900003497800626c2100810041003b
:104f7800305a90008448780010589000904098006b
:104f88003e00370081c0b300b0418000315898001e
:104f98003a0037008040eb0001589800b04180008b
:104fa800a002900035009800900090000190a000a9
:104fb80011009800d0b58000e30f500026003c0097
:104fc800a16b21008008e800b0b58000e20f500016
:104fd80003003c00e48050008008e800020037002d
:104fe800606b21000008eb00606b21001001780065
:104ff8006c12b9008400780081014000f4ff27009a
:10500800b40198006033b800c6019800d701980031
:105018000201e8006c11b900020040000008eb0032
:10502800b0418000426c210001014100c05b90004a
:1050380017419800a059900003497800626c21003c
:1050480081004100305a9000844878001058900040
:10505800904098000900370081c0b300b04180003b
:10506800315898000500370018c0b3000300370016
:1050780018c0b3000100370018c0b3000804e000ee
:10508800090032008040eb00b041800001589800d0
:10509800b0418000a0029000350098009000900078
:1050a8000190a0001100980030c0b300f9f3070088
:1050b8000004e000eefe3a003828a800020037009d
:1050c8000044eb00e6fe37004f04780000000600bd
:1050d80090b580009000900010c0b3000198a30024
:1050e8001d00320083b580000040eb000300e000a3
:1050f80019003200130190000200e0001000320095
:10510800220090000000e0000a00320090009000a9
:105118000198a30004003a000d00370090009000a9
:105128000198a3000b003200100078000000e00096
:10513800faff3a00120178000200e000f0ff3a009e
:10514800930178000300e000eaff3a000000050040
:105158001000050010c0b30000000600881f78008a
:105168000144780061c0b300726a2100924f1000b8
:1051780013003a0002f02000a04180000001610005
:1051880011c0b30000402000800f51000c003a000d
:10519800cfff070021c0b3000004e00008003a0078
:1051a800406a21000848780080c0eb0090b5800074
:1051b8001158980000332000a04188008040eb007f
:1051c800014078004f047800000006008ec0a90056
:1051d80082c4ab000e00320080c4ab000c00320069
:1051e80000042000002488003208e2000800320091
:1051f8003228ed003208e20005003a0082c4a90016
:1052080000f020003408b600010032003428ec0019
:105218008cc4ab000a0032008ac4ab00080032001c
:105228008cc4a9000004200050248800700050009d
:105238003408e30002003a00001020008041880092
:105248008c04ab00060032008a04ab000400320074
:1052580010002000502488008c04a9003028ef009a
:105268008c64ab00270132008a64ab002501320050
:105278008c24ab00080032008a24ab000600320000
:10528800b0418000d00890000130b200001020002a
:10529800808f50001b013a003888a90092248000b2
:1052a8008000200050248800b0418000a058900061
:1052b8008180fb00f324800081806900ef8060001a
:1052c8000f013a00820078000138a300050032007f
:1052d800c28021000128a30006003a0064015100a1
:1052e80004003700428021000128a30001003a0091
:1052f8006401510001c023009280600003802000f7
:10530800838f500046003a00f13f200092806000f1
:10531800000990009009900002814000e081490056
:105328000208980013089800b04180000001eb00c3
:1053380072089800100190004b11de000281ea000b
:10534800610161004b11dd009001900003b0a100e4
:105358000301710012009800b041800000599000cc
:10536800f04f5100080032008059900002c2b3008b
:1053780082cf5100040032008059900070414100f2
:1053880082cf51000f003a00000a9000900a900066
:10539800700190008001eb00820f5200838f5a0049
:1053a800d70039006011b800020898001308980067
:1053b800b0418000805890008140e8000158980072
:1053c800cf003700d00990000330b200021020004f
:1053d800828f51000a00320040019000828f5000f5
:1053e80007003900000a9000900a900050019000d0
:1053f800e0019000820f5200838f5a00c0003900ec
:10540800900090000180a00011009800b041800039
:10541800805890008140e80001589800b800370093
:1054280003c02000838f50000300320003c0220015
:10543800838f50002c003a00f13f200092806000da
:10544800000990009009900002814000e081490025
:105458000208980013089800b04180000001eb0092
:1054680072089800100190004b11de000281ea00da
:10547800610161004b11dd009001900003b0a100b3
:105488000301710012009800b0418000d00990001b
:105498000330b20002102000828f51000a0032004f
:1054a80040019000828f500007003900000a9000e8
:1054b800900a900050019000e0019000820f520085
:1054c800838f5a008e003900900090000180a00060
:1054d80011009800b0418000805890008140e80099
:1054e800015898008600370002802200828f500001
:1054f8005a003a009000900001c0a00011009800e6
